{
  "_format": "hh-sol-artifact-1",
  "contractName": "SoulToken",
  "sourceName": "contracts/SoulToken.sol",
  "abi": [
    {
      "inputs": [
        {
          "internalType": "uint256",
          "name": "_fee",
          "type": "uint256"
        }
      ],
      "stateMutability": "nonpayable",
      "type": "constructor"
    },
    {
      "anonymous": false,
      "inputs": [
        {
          "indexed": true,
          "internalType": "address",
          "name": "owner",
          "type": "address"
        },
        {
          "indexed": true,
          "internalType": "address",
          "name": "approved",
          "type": "address"
        },
        {
          "indexed": true,
          "internalType": "uint256",
          "name": "tokenId",
          "type": "uint256"
        }
      ],
      "name": "Approval",
      "type": "event"
    },
    {
      "anonymous": false,
      "inputs": [
        {
          "indexed": true,
          "internalType": "address",
          "name": "owner",
          "type": "address"
        },
        {
          "indexed": true,
          "internalType": "address",
          "name": "operator",
          "type": "address"
        },
        {
          "indexed": false,
          "internalType": "bool",
          "name": "approved",
          "type": "bool"
        }
      ],
      "name": "ApprovalForAll",
      "type": "event"
    },
    {
      "anonymous": false,
      "inputs": [
        {
          "indexed": true,
          "internalType": "address",
          "name": "from",
          "type": "address"
        },
        {
          "indexed": true,
          "internalType": "address",
          "name": "to",
          "type": "address"
        },
        {
          "indexed": false,
          "internalType": "bytes32",
          "name": "proposeId",
          "type": "bytes32"
        },
        {
          "indexed": false,
          "internalType": "uint256",
          "name": "eventId",
          "type": "uint256"
        }
      ],
      "name": "MakePropose",
      "type": "event"
    },
    {
      "anonymous": false,
      "inputs": [
        {
          "indexed": true,
          "internalType": "address",
          "name": "previousOwner",
          "type": "address"
        },
        {
          "indexed": true,
          "internalType": "address",
          "name": "newOwner",
          "type": "address"
        }
      ],
      "name": "OwnershipTransferred",
      "type": "event"
    },
    {
      "anonymous": false,
      "inputs": [
        {
          "indexed": true,
          "internalType": "address",
          "name": "from",
          "type": "address"
        },
        {
          "indexed": true,
          "internalType": "address",
          "name": "to",
          "type": "address"
        },
        {
          "indexed": true,
          "internalType": "uint256",
          "name": "tokenId",
          "type": "uint256"
        }
      ],
      "name": "Transfer",
      "type": "event"
    },
    {
      "anonymous": false,
      "inputs": [
        {
          "indexed": false,
          "internalType": "uint256",
          "name": "tokenId",
          "type": "uint256"
        },
        {
          "indexed": false,
          "internalType": "address",
          "name": "withnessAddr",
          "type": "address"
        }
      ],
      "name": "Witness",
      "type": "event"
    },
    {
      "inputs": [
        {
          "internalType": "address",
          "name": "to",
          "type": "address"
        },
        {
          "internalType": "uint256",
          "name": "tokenId",
          "type": "uint256"
        }
      ],
      "name": "approve",
      "outputs": [],
      "stateMutability": "nonpayable",
      "type": "function"
    },
    {
      "inputs": [
        {
          "internalType": "bytes32",
          "name": "_proposeHash",
          "type": "bytes32"
        }
      ],
      "name": "approvePropose",
      "outputs": [],
      "stateMutability": "nonpayable",
      "type": "function"
    },
    {
      "inputs": [
        {
          "internalType": "address",
          "name": "owner",
          "type": "address"
        }
      ],
      "name": "balanceOf",
      "outputs": [
        {
          "internalType": "uint256",
          "name": "",
          "type": "uint256"
        }
      ],
      "stateMutability": "view",
      "type": "function"
    },
    {
      "inputs": [
        {
          "internalType": "uint256",
          "name": "tokenId",
          "type": "uint256"
        }
      ],
      "name": "burn",
      "outputs": [],
      "stateMutability": "nonpayable",
      "type": "function"
    },
    {
      "inputs": [],
      "name": "fee",
      "outputs": [
        {
          "internalType": "uint256",
          "name": "",
          "type": "uint256"
        }
      ],
      "stateMutability": "view",
      "type": "function"
    },
    {
      "inputs": [
        {
          "internalType": "uint256",
          "name": "tokenId",
          "type": "uint256"
        }
      ],
      "name": "getApproved",
      "outputs": [
        {
          "internalType": "address",
          "name": "",
          "type": "address"
        }
      ],
      "stateMutability": "view",
      "type": "function"
    },
    {
      "inputs": [
        {
          "internalType": "address",
          "name": "owner",
          "type": "address"
        },
        {
          "internalType": "address",
          "name": "operator",
          "type": "address"
        }
      ],
      "name": "isApprovedForAll",
      "outputs": [
        {
          "internalType": "bool",
          "name": "",
          "type": "bool"
        }
      ],
      "stateMutability": "view",
      "type": "function"
    },
    {
      "inputs": [],
      "name": "name",
      "outputs": [
        {
          "internalType": "string",
          "name": "",
          "type": "string"
        }
      ],
      "stateMutability": "view",
      "type": "function"
    },
    {
      "inputs": [],
      "name": "owner",
      "outputs": [
        {
          "internalType": "address",
          "name": "",
          "type": "address"
        }
      ],
      "stateMutability": "view",
      "type": "function"
    },
    {
      "inputs": [
        {
          "internalType": "uint256",
          "name": "tokenId",
          "type": "uint256"
        }
      ],
      "name": "ownerOf",
      "outputs": [
        {
          "internalType": "address",
          "name": "",
          "type": "address"
        }
      ],
      "stateMutability": "view",
      "type": "function"
    },
    {
      "inputs": [
        {
          "internalType": "address",
          "name": "",
          "type": "address"
        },
        {
          "internalType": "uint256",
          "name": "",
          "type": "uint256"
        }
      ],
      "name": "pendingConfirm",
      "outputs": [
        {
          "internalType": "bytes32",
          "name": "",
          "type": "bytes32"
        }
      ],
      "stateMutability": "view",
      "type": "function"
    },
    {
      "inputs": [
        {
          "internalType": "address",
          "name": "_party",
          "type": "address"
        },
        {
          "internalType": "uint256",
          "name": "index",
          "type": "uint256"
        }
      ],
      "name": "pendingConfirmByIndex",
      "outputs": [
        {
          "internalType": "bytes32",
          "name": "",
          "type": "bytes32"
        }
      ],
      "stateMutability": "view",
      "type": "function"
    },
    {
      "inputs": [
        {
          "internalType": "address",
          "name": "",
          "type": "address"
        }
      ],
      "name": "pendingConfirmCount",
      "outputs": [
        {
          "internalType": "uint256",
          "name": "",
          "type": "uint256"
        }
      ],
      "stateMutability": "view",
      "type": "function"
    },
    {
      "inputs": [
        {
          "internalType": "address",
          "name": "",
          "type": "address"
        },
        {
          "internalType": "bytes32",
          "name": "",
          "type": "bytes32"
        }
      ],
      "name": "pendingConfirmHashIndex",
      "outputs": [
        {
          "internalType": "uint256",
          "name": "",
          "type": "uint256"
        }
      ],
      "stateMutability": "view",
      "type": "function"
    },
    {
      "inputs": [
        {
          "internalType": "address",
          "name": "_party",
          "type": "address"
        },
        {
          "internalType": "bytes32",
          "name": "_hashId",
          "type": "bytes32"
        }
      ],
      "name": "pendingConfirmIndexByHash",
      "outputs": [
        {
          "internalType": "uint256",
          "name": "",
          "type": "uint256"
        }
      ],
      "stateMutability": "view",
      "type": "function"
    },
    {
      "inputs": [
        {
          "internalType": "address",
          "name": "_from",
          "type": "address"
        },
        {
          "internalType": "address",
          "name": "_to",
          "type": "address"
        },
        {
          "internalType": "uint256",
          "name": "_eventId",
          "type": "uint256"
        }
      ],
      "name": "proposeExists",
      "outputs": [
        {
          "internalType": "bool",
          "name": "",
          "type": "bool"
        }
      ],
      "stateMutability": "view",
      "type": "function"
    },
    {
      "inputs": [
        {
          "internalType": "bytes32",
          "name": "_proposeHash",
          "type": "bytes32"
        }
      ],
      "name": "proposeHashExists",
      "outputs": [
        {
          "internalType": "bool",
          "name": "",
          "type": "bool"
        }
      ],
      "stateMutability": "view",
      "type": "function"
    },
    {
      "inputs": [
        {
          "internalType": "address",
          "name": "",
          "type": "address"
        },
        {
          "internalType": "uint256",
          "name": "",
          "type": "uint256"
        }
      ],
      "name": "proposeIdByAddr",
      "outputs": [
        {
          "internalType": "bytes32",
          "name": "",
          "type": "bytes32"
        }
      ],
      "stateMutability": "view",
      "type": "function"
    },
    {
      "inputs": [
        {
          "internalType": "bytes32",
          "name": "",
          "type": "bytes32"
        }
      ],
      "name": "proposeInfo",
      "outputs": [
        {
          "internalType": "address",
          "name": "from",
          "type": "address"
        },
        {
          "internalType": "address",
          "name": "to",
          "type": "address"
        },
        {
          "internalType": "uint256",
          "name": "eventId",
          "type": "uint256"
        },
        {
          "internalType": "string",
          "name": "tokenURI",
          "type": "string"
        },
        {
          "internalType": "bool",
          "name": "acceptStatus",
          "type": "bool"
        },
        {
          "internalType": "bool",
          "name": "mutualMint",
          "type": "bool"
        }
      ],
      "stateMutability": "view",
      "type": "function"
    },
    {
      "inputs": [],
      "name": "renounceOwnership",
      "outputs": [],
      "stateMutability": "nonpayable",
      "type": "function"
    },
    {
      "inputs": [
        {
          "internalType": "address",
          "name": "from",
          "type": "address"
        },
        {
          "internalType": "address",
          "name": "to",
          "type": "address"
        },
        {
          "internalType": "uint256",
          "name": "tokenId",
          "type": "uint256"
        }
      ],
      "name": "safeTransferFrom",
      "outputs": [],
      "stateMutability": "nonpayable",
      "type": "function"
    },
    {
      "inputs": [
        {
          "internalType": "address",
          "name": "from",
          "type": "address"
        },
        {
          "internalType": "address",
          "name": "to",
          "type": "address"
        },
        {
          "internalType": "uint256",
          "name": "tokenId",
          "type": "uint256"
        },
        {
          "internalType": "bytes",
          "name": "_data",
          "type": "bytes"
        }
      ],
      "name": "safeTransferFrom",
      "outputs": [],
      "stateMutability": "nonpayable",
      "type": "function"
    },
    {
      "inputs": [
        {
          "internalType": "address[]",
          "name": "_parties",
          "type": "address[]"
        },
        {
          "internalType": "uint256",
          "name": "_eventId",
          "type": "uint256"
        },
        {
          "internalType": "bool",
          "name": "_mutualMint",
          "type": "bool"
        },
        {
          "internalType": "string",
          "name": "_tokenURI",
          "type": "string"
        }
      ],
      "name": "sendBatchRequest",
      "outputs": [],
      "stateMutability": "payable",
      "type": "function"
    },
    {
      "inputs": [
        {
          "internalType": "address",
          "name": "_party",
          "type": "address"
        },
        {
          "internalType": "uint256",
          "name": "_eventId",
          "type": "uint256"
        },
        {
          "internalType": "bool",
          "name": "_mutualMint",
          "type": "bool"
        },
        {
          "internalType": "string",
          "name": "_tokenURI",
          "type": "string"
        }
      ],
      "name": "sendRequest",
      "outputs": [],
      "stateMutability": "payable",
      "type": "function"
    },
    {
      "inputs": [
        {
          "internalType": "address",
          "name": "operator",
          "type": "address"
        },
        {
          "internalType": "bool",
          "name": "approved",
          "type": "bool"
        }
      ],
      "name": "setApprovalForAll",
      "outputs": [],
      "stateMutability": "nonpayable",
      "type": "function"
    },
    {
      "inputs": [
        {
          "internalType": "bytes4",
          "name": "interfaceId",
          "type": "bytes4"
        }
      ],
      "name": "supportsInterface",
      "outputs": [
        {
          "internalType": "bool",
          "name": "",
          "type": "bool"
        }
      ],
      "stateMutability": "view",
      "type": "function"
    },
    {
      "inputs": [],
      "name": "symbol",
      "outputs": [
        {
          "internalType": "string",
          "name": "",
          "type": "string"
        }
      ],
      "stateMutability": "view",
      "type": "function"
    },
    {
      "inputs": [
        {
          "internalType": "uint256",
          "name": "tokenId",
          "type": "uint256"
        }
      ],
      "name": "tokenURI",
      "outputs": [
        {
          "internalType": "string",
          "name": "",
          "type": "string"
        }
      ],
      "stateMutability": "view",
      "type": "function"
    },
    {
      "inputs": [
        {
          "internalType": "address",
          "name": "from",
          "type": "address"
        },
        {
          "internalType": "address",
          "name": "to",
          "type": "address"
        },
        {
          "internalType": "uint256",
          "name": "tokenId",
          "type": "uint256"
        }
      ],
      "name": "transferFrom",
      "outputs": [],
      "stateMutability": "nonpayable",
      "type": "function"
    },
    {
      "inputs": [
        {
          "internalType": "address",
          "name": "newOwner",
          "type": "address"
        }
      ],
      "name": "transferOwnership",
      "outputs": [],
      "stateMutability": "nonpayable",
      "type": "function"
    },
    {
      "inputs": [],
      "name": "withdraw",
      "outputs": [],
      "stateMutability": "nonpayable",
      "type": "function"
    },
    {
      "inputs": [
        {
          "internalType": "uint256",
          "name": "tokenId",
          "type": "uint256"
        }
      ],
      "name": "witness",
      "outputs": [],
      "stateMutability": "nonpayable",
      "type": "function"
    }
  ],
  "bytecode": "0x60806040523480156200001157600080fd5b50604051620050f1380380620050f18339818101604052810190620000379190620002a2565b6040518060400160405280600d81526020017f50726f6f66204f6620536f756c000000000000000000000000000000000000008152506040518060400160405280600381526020017f504f5300000000000000000000000000000000000000000000000000000000008152508160009080519060200190620000bb929190620001db565b508060019080519060200190620000d4929190620001db565b505050620000f7620000eb6200010d60201b60201c565b6200011560201b60201c565b600160088190555080600f819055505062000357565b600033905090565b6000600760009054906101000a900473ffffffffffffffffffffffffffffffffffffffff16905081600760006101000a81548173ffffffffffffffffffffffffffffffffffffffff021916908373ffffffffffffffffffffffffffffffffffffffff1602179055508173ffffffffffffffffffffffffffffffffffffffff168173ffffffffffffffffffffffffffffffffffffffff167f8be0079c531659141344cd1fd0a4f28419497f9722a3daafe3b4186f6b6457e060405160405180910390a35050565b828054620001e990620002d8565b90600052602060002090601f0160209004810192826200020d576000855562000259565b82601f106200022857805160ff191683800117855562000259565b8280016001018555821562000259579182015b82811115620002585782518255916020019190600101906200023b565b5b5090506200026891906200026c565b5090565b5b80821115620002875760008160009055506001016200026d565b5090565b6000815190506200029c816200033d565b92915050565b600060208284031215620002b557600080fd5b6000620002c5848285016200028b565b91505092915050565b6000819050919050565b60006002820490506001821680620002f157607f821691505b602082108114156200030857620003076200030e565b5b50919050565b7f4e487b7100000000000000000000000000000000000000000000000000000000600052602260045260246000fd5b6200034881620002ce565b81146200035457600080fd5b50565b614d8a80620003676000396000f3fe6080604052600436106101e35760003560e01c806370a0823111610102578063a1dead2911610095578063ddca3f4311610064578063ddca3f4314610735578063e985e9c514610760578063f02b3ad01461079d578063f2fde38b146107da576101e3565b8063a1dead2914610664578063a22cb465146106a6578063b88d4fde146106cf578063c87b56dd146106f8576101e3565b806384945433116100d157806384945433146105c95780638da5cb5b146105e557806395d89b41146106105780639b9419c41461063b576101e3565b806370a0823114610530578063715018a61461056d57806379d8912a1461058457806383608d8c146105a0576101e3565b806323b872dd1161017a57806344d288231161014957806344d288231461043c5780634ac1d82b146104795780635b6fcedd146104b65780636352211e146104f3576101e3565b806323b872dd146103aa5780633ccfd60b146103d357806342842e0e146103ea57806342966c6814610413576101e3565b8063095ea7b3116101b6578063095ea7b3146102ca5780630ce3fd7b146102f35780630fe96a521461033057806319eeb63b1461036d576101e3565b806301ffc9a7146101e857806306fdde031461022557806307298bd914610250578063081812fc1461028d575b600080fd5b3480156101f457600080fd5b5061020f600480360381019061020a919061386e565b610803565b60405161021c9190613e91565b60405180910390f35b34801561023157600080fd5b5061023a6108e5565b6040516102479190613ef0565b60405180910390f35b34801561025c57600080fd5b50610277600480360381019061027291906135b9565b610977565b6040516102849190613e91565b60405180910390f35b34801561029957600080fd5b506102b460048036038101906102af91906138c0565b610a08565b6040516102c19190613dc2565b60405180910390f35b3480156102d657600080fd5b506102f160048036038101906102ec91906136fb565b610a8d565b005b3480156102ff57600080fd5b5061031a60048036038101906103159190613554565b610ba5565b6040516103279190614232565b60405180910390f35b34801561033c57600080fd5b5061035760048036038101906103529190613845565b610bbd565b6040516103649190613e91565b60405180910390f35b34801561037957600080fd5b50610394600480360381019061038f91906136bf565b610c3c565b6040516103a19190614232565b60405180910390f35b3480156103b657600080fd5b506103d160048036038101906103cc91906135b9565b610c97565b005b3480156103df57600080fd5b506103e8610cf7565b005b3480156103f657600080fd5b50610411600480360381019061040c91906135b9565b610dbc565b005b34801561041f57600080fd5b5061043a600480360381019061043591906138c0565b610ddc565b005b34801561044857600080fd5b50610463600480360381019061045e91906136fb565b610e38565b6040516104709190613eac565b60405180910390f35b34801561048557600080fd5b506104a0600480360381019061049b91906136bf565b610e5d565b6040516104ad9190614232565b60405180910390f35b3480156104c257600080fd5b506104dd60048036038101906104d891906136fb565b610e82565b6040516104ea9190613eac565b60405180910390f35b3480156104ff57600080fd5b5061051a600480360381019061051591906138c0565b610edd565b6040516105279190613dc2565b60405180910390f35b34801561053c57600080fd5b5061055760048036038101906105529190613554565b610f8f565b6040516105649190614232565b60405180910390f35b34801561057957600080fd5b50610582611047565b005b61059e60048036038101906105999190613737565b6110cf565b005b3480156105ac57600080fd5b506105c760048036038101906105c29190613845565b6111c6565b005b6105e360048036038101906105de91906137b2565b61148c565b005b3480156105f157600080fd5b506105fa6115e9565b6040516106079190613dc2565b60405180910390f35b34801561061c57600080fd5b50610625611613565b6040516106329190613ef0565b60405180910390f35b34801561064757600080fd5b50610662600480360381019061065d91906138c0565b6116a5565b005b34801561067057600080fd5b5061068b60048036038101906106869190613845565b611737565b60405161069d96959493929190613e29565b60405180910390f35b3480156106b257600080fd5b506106cd60048036038101906106c89190613683565b611855565b005b3480156106db57600080fd5b506106f660048036038101906106f19190613608565b61186b565b005b34801561070457600080fd5b5061071f600480360381019061071a91906138c0565b6118cd565b60405161072c9190613ef0565b60405180910390f35b34801561074157600080fd5b5061074a611a1f565b6040516107579190614232565b60405180910390f35b34801561076c57600080fd5b506107876004803603810190610782919061357d565b611a25565b6040516107949190613e91565b60405180910390f35b3480156107a957600080fd5b506107c460048036038101906107bf91906136fb565b611ab9565b6040516107d19190613eac565b60405180910390f35b3480156107e657600080fd5b5061080160048036038101906107fc9190613554565b611aea565b005b60007f80ac58cd000000000000000000000000000000000000000000000000000000007bffffffffffffffffffffffffffffffffffffffffffffffffffffffff1916827bffffffffffffffffffffffffffffffffffffffffffffffffffffffff191614806108ce57507f5b5e139f000000000000000000000000000000000000000000000000000000007bffffffffffffffffffffffffffffffffffffffffffffffffffffffff1916827bffffffffffffffffffffffffffffffffffffffffffffffffffffffff1916145b806108de57506108dd82611be2565b5b9050919050565b6060600080546108f4906144e7565b80601f0160208091040260200160405190810160405280929190818152602001828054610920906144e7565b801561096d5780601f106109425761010080835404028352916020019161096d565b820191906000526020600020905b81548152906001019060200180831161095057829003601f168201915b5050505050905090565b600080610985858585611c4c565b90508473ffffffffffffffffffffffffffffffffffffffff16600a600083815260200190815260200160002060000160009054906101000a900473ffffffffffffffffffffffffffffffffffffffff1673ffffffffffffffffffffffffffffffffffffffff1614156109fb576001915050610a01565b60009150505b9392505050565b6000610a1382611c82565b610a52576040517f08c379a0000000000000000000000000000000000000000000000000000000008152600401610a4990614112565b60405180910390fd5b6004600083815260200190815260200160002060009054906101000a900473ffffffffffffffffffffffffffffffffffffffff169050919050565b6000610a9882610edd565b90508073ffffffffffffffffffffffffffffffffffffffff168373ffffffffffffffffffffffffffffffffffffffff161415610b09576040517f08c379a0000000000000000000000000000000000000000000000000000000008152600401610b00906141b2565b60405180910390fd5b8073ffffffffffffffffffffffffffffffffffffffff16610b28611cee565b73ffffffffffffffffffffffffffffffffffffffff161480610b575750610b5681610b51611cee565b611a25565b5b610b96576040517f08c379a0000000000000000000000000000000000000000000000000000000008152600401610b8d90614052565b60405180910390fd5b610ba08383611cf6565b505050565b600d6020528060005260406000206000915090505481565b60008073ffffffffffffffffffffffffffffffffffffffff16600a600084815260200190815260200160002060000160009054906101000a900473ffffffffffffffffffffffffffffffffffffffff1673ffffffffffffffffffffffffffffffffffffffff161415610c325760009050610c37565b600190505b919050565b6000600e60008473ffffffffffffffffffffffffffffffffffffffff1673ffffffffffffffffffffffffffffffffffffffff168152602001908152602001600020600083815260200190815260200160002054905092915050565b610ca8610ca2611cee565b82611daf565b610ce7576040517f08c379a0000000000000000000000000000000000000000000000000000000008152600401610cde906141d2565b60405180910390fd5b610cf2838383611e8d565b505050565b610cff611cee565b73ffffffffffffffffffffffffffffffffffffffff16610d1d6115e9565b73ffffffffffffffffffffffffffffffffffffffff1614610d73576040517f08c379a0000000000000000000000000000000000000000000000000000000008152600401610d6a90614132565b60405180910390fd5b3373ffffffffffffffffffffffffffffffffffffffff166108fc479081150290604051600060405180830381858888f19350505050158015610db9573d6000803e3d6000fd5b50565b610dd78383836040518060200160405280600081525061186b565b505050565b610ded610de7611cee565b82611daf565b610e2c576040517f08c379a0000000000000000000000000000000000000000000000000000000008152600401610e2390614192565b60405180910390fd5b610e35816120e9565b50565b600c602052816000526040600020602052806000526040600020600091509150505481565b600e602052816000526040600020602052806000526040600020600091509150505481565b6000600c60008473ffffffffffffffffffffffffffffffffffffffff1673ffffffffffffffffffffffffffffffffffffffff168152602001908152602001600020600083815260200190815260200160002054905092915050565b6000806002600084815260200190815260200160002060009054906101000a900473ffffffffffffffffffffffffffffffffffffffff169050600073ffffffffffffffffffffffffffffffffffffffff168173ffffffffffffffffffffffffffffffffffffffff161415610f86576040517f08c379a0000000000000000000000000000000000000000000000000000000008152600401610f7d90614092565b60405180910390fd5b80915050919050565b60008073ffffffffffffffffffffffffffffffffffffffff168273ffffffffffffffffffffffffffffffffffffffff161415611000576040517f08c379a0000000000000000000000000000000000000000000000000000000008152600401610ff790614072565b60405180910390fd5b600360008373ffffffffffffffffffffffffffffffffffffffff1673ffffffffffffffffffffffffffffffffffffffff168152602001908152602001600020549050919050565b61104f611cee565b73ffffffffffffffffffffffffffffffffffffffff1661106d6115e9565b73ffffffffffffffffffffffffffffffffffffffff16146110c3576040517f08c379a00000000000000000000000000000000000000000000000000000000081526004016110ba90614132565b60405180910390fd5b6110cd600061213c565b565b60026008541415611115576040517f08c379a000000000000000000000000000000000000000000000000000000000815260040161110c90614212565b60405180910390fd5b6002600881905550611128338585610977565b15611168576040517f08c379a000000000000000000000000000000000000000000000000000000000815260040161115f90614032565b60405180910390fd5b600f5434146111ac576040517f08c379a00000000000000000000000000000000000000000000000000000000081526004016111a390614012565b60405180910390fd5b6111b884848484612202565b600160088190555050505050565b6002600854141561120c576040517f08c379a000000000000000000000000000000000000000000000000000000000815260040161120390614212565b60405180910390fd5b600260088190555061121d81610bbd565b61125c576040517f08c379a000000000000000000000000000000000000000000000000000000000815260040161125390613f72565b60405180910390fd5b6000600a60008381526020019081526020016000209050600015158160040160009054906101000a900460ff161515146112cb576040517f08c379a00000000000000000000000000000000000000000000000000000000081526004016112c290613fd2565b60405180910390fd5b60018160040160006101000a81548160ff0219169083151502179055506112f23383612458565b8060040160019054906101000a900460ff16156113c5576113c38160000160009054906101000a900473ffffffffffffffffffffffffffffffffffffffff16826003018054611340906144e7565b80601f016020809104026020016040519081016040528092919081815260200182805461136c906144e7565b80156113b95780601f1061138e576101008083540402835291602001916113b9565b820191906000526020600020905b81548152906001019060200180831161139c57829003601f168201915b50505050506126b3565b505b61147f8160010160009054906101000a900473ffffffffffffffffffffffffffffffffffffffff168260030180546113fc906144e7565b80601f0160208091040260200160405190810160405280929190818152602001828054611428906144e7565b80156114755780601f1061144a57610100808354040283529160200191611475565b820191906000526020600020905b81548152906001019060200180831161145857829003601f168201915b50505050506126b3565b5050600160088190555050565b600260085414156114d2576040517f08c379a00000000000000000000000000000000000000000000000000000000081526004016114c990614212565b60405180910390fd5b600260088190555060005b84518110156115da576000858281518110611521577f4e487b7100000000000000000000000000000000000000000000000000000000600052603260045260246000fd5b60200260200101519050611536338287610977565b15611576576040517f08c379a000000000000000000000000000000000000000000000000000000000815260040161156d90614032565b60405180910390fd5b600f5434146115ba576040517f08c379a00000000000000000000000000000000000000000000000000000000081526004016115b190614012565b60405180910390fd5b6115c681868686612202565b5080806115d29061454a565b9150506114dd565b50600160088190555050505050565b6000600760009054906101000a900473ffffffffffffffffffffffffffffffffffffffff16905090565b606060018054611622906144e7565b80601f016020809104026020016040519081016040528092919081815260200182805461164e906144e7565b801561169b5780601f106116705761010080835404028352916020019161169b565b820191906000526020600020905b81548152906001019060200180831161167e57829003601f168201915b5050505050905090565b600260085414156116eb576040517f08c379a00000000000000000000000000000000000000000000000000000000081526004016116e290614212565b60405180910390fd5b60026008819055507fae1bcbdf2de9df4313d4932816e3638b4de0908a210e6fba47ea7d529034ca3e813360405161172492919061424d565b60405180910390a1600160088190555050565b600a6020528060005260406000206000915090508060000160009054906101000a900473ffffffffffffffffffffffffffffffffffffffff16908060010160009054906101000a900473ffffffffffffffffffffffffffffffffffffffff16908060020154908060030180546117ac906144e7565b80601f01602080910402602001604051908101604052809291908181526020018280546117d8906144e7565b80156118255780601f106117fa57610100808354040283529160200191611825565b820191906000526020600020905b81548152906001019060200180831161180857829003601f168201915b5050505050908060040160009054906101000a900460ff16908060040160019054906101000a900460ff16905086565b611867611860611cee565b83836126eb565b5050565b61187c611876611cee565b83611daf565b6118bb576040517f08c379a00000000000000000000000000000000000000000000000000000000081526004016118b2906141d2565b60405180910390fd5b6118c784848484612858565b50505050565b60606118d882611c82565b611917576040517f08c379a000000000000000000000000000000000000000000000000000000000815260040161190e906140f2565b60405180910390fd5b6000600660008481526020019081526020016000208054611937906144e7565b80601f0160208091040260200160405190810160405280929190818152602001828054611963906144e7565b80156119b05780601f10611985576101008083540402835291602001916119b0565b820191906000526020600020905b81548152906001019060200180831161199357829003601f168201915b5050505050905060006119c16128b4565b90506000815114156119d7578192505050611a1a565b600082511115611a0c5780826040516020016119f4929190613d9e565b60405160208183030381529060405292505050611a1a565b611a15846128cb565b925050505b919050565b600f5481565b6000600560008473ffffffffffffffffffffffffffffffffffffffff1673ffffffffffffffffffffffffffffffffffffffff16815260200190815260200160002060008373ffffffffffffffffffffffffffffffffffffffff1673ffffffffffffffffffffffffffffffffffffffff16815260200190815260200160002060009054906101000a900460ff16905092915050565b600b6020528160005260406000208181548110611ad557600080fd5b90600052602060002001600091509150505481565b611af2611cee565b73ffffffffffffffffffffffffffffffffffffffff16611b106115e9565b73ffffffffffffffffffffffffffffffffffffffff1614611b66576040517f08c379a0000000000000000000000000000000000000000000000000000000008152600401611b5d90614132565b60405180910390fd5b600073ffffffffffffffffffffffffffffffffffffffff168173ffffffffffffffffffffffffffffffffffffffff161415611bd6576040517f08c379a0000000000000000000000000000000000000000000000000000000008152600401611bcd90613f32565b60405180910390fd5b611bdf8161213c565b50565b60007f01ffc9a7000000000000000000000000000000000000000000000000000000007bffffffffffffffffffffffffffffffffffffffffffffffffffffffff1916827bffffffffffffffffffffffffffffffffffffffffffffffffffffffff1916149050919050565b6000838383604051602001611c6393929190613d61565b6040516020818303038152906040528051906020012090509392505050565b60008073ffffffffffffffffffffffffffffffffffffffff166002600084815260200190815260200160002060009054906101000a900473ffffffffffffffffffffffffffffffffffffffff1673ffffffffffffffffffffffffffffffffffffffff1614159050919050565b600033905090565b816004600083815260200190815260200160002060006101000a81548173ffffffffffffffffffffffffffffffffffffffff021916908373ffffffffffffffffffffffffffffffffffffffff160217905550808273ffffffffffffffffffffffffffffffffffffffff16611d6983610edd565b73ffffffffffffffffffffffffffffffffffffffff167f8c5be1e5ebec7d5bd14f71427d1e84f3dd0314c0f7b2291e5b200ac8c7c3b92560405160405180910390a45050565b6000611dba82611c82565b611df9576040517f08c379a0000000000000000000000000000000000000000000000000000000008152600401611df090613ff2565b60405180910390fd5b6000611e0483610edd565b90508073ffffffffffffffffffffffffffffffffffffffff168473ffffffffffffffffffffffffffffffffffffffff161480611e7357508373ffffffffffffffffffffffffffffffffffffffff16611e5b84610a08565b73ffffffffffffffffffffffffffffffffffffffff16145b80611e845750611e838185611a25565b5b91505092915050565b8273ffffffffffffffffffffffffffffffffffffffff16611ead82610edd565b73ffffffffffffffffffffffffffffffffffffffff1614611f03576040517f08c379a0000000000000000000000000000000000000000000000000000000008152600401611efa90614152565b60405180910390fd5b600073ffffffffffffffffffffffffffffffffffffffff168273ffffffffffffffffffffffffffffffffffffffff161415611f73576040517f08c379a0000000000000000000000000000000000000000000000000000000008152600401611f6a90613f92565b60405180910390fd5b611f7e838383612972565b611f89600082611cf6565b6001600360008573ffffffffffffffffffffffffffffffffffffffff1673ffffffffffffffffffffffffffffffffffffffff1681526020019081526020016000206000828254611fd991906143f3565b925050819055506001600360008473ffffffffffffffffffffffffffffffffffffffff1673ffffffffffffffffffffffffffffffffffffffff1681526020019081526020016000206000828254612030919061436c565b92505081905550816002600083815260200190815260200160002060006101000a81548173ffffffffffffffffffffffffffffffffffffffff021916908373ffffffffffffffffffffffffffffffffffffffff160217905550808273ffffffffffffffffffffffffffffffffffffffff168473ffffffffffffffffffffffffffffffffffffffff167fddf252ad1be2c89b69c2b068fc378daa952ba7f163c4a11628f55a4df523b3ef60405160405180910390a4505050565b6120f281612a37565b6000600660008381526020019081526020016000208054612112906144e7565b90501461213957600660008281526020019081526020016000206000612138919061328d565b5b50565b6000600760009054906101000a900473ffffffffffffffffffffffffffffffffffffffff16905081600760006101000a81548173ffffffffffffffffffffffffffffffffffffffff021916908373ffffffffffffffffffffffffffffffffffffffff1602179055508173ffffffffffffffffffffffffffffffffffffffff168173ffffffffffffffffffffffffffffffffffffffff167f8be0079c531659141344cd1fd0a4f28419497f9722a3daafe3b4186f6b6457e060405160405180910390a35050565b600061220f338686611c4c565b90506040518060c001604052803373ffffffffffffffffffffffffffffffffffffffff1681526020018673ffffffffffffffffffffffffffffffffffffffff168152602001438152602001838152602001600015158152602001841515815250600a600083815260200190815260200160002060008201518160000160006101000a81548173ffffffffffffffffffffffffffffffffffffffff021916908373ffffffffffffffffffffffffffffffffffffffff16021790555060208201518160010160006101000a81548173ffffffffffffffffffffffffffffffffffffffff021916908373ffffffffffffffffffffffffffffffffffffffff1602179055506040820151816002015560608201518160030190805190602001906123369291906132cd565b5060808201518160040160006101000a81548160ff02191690831515021790555060a08201518160040160016101000a81548160ff021916908315150217905550905050600b60003373ffffffffffffffffffffffffffffffffffffffff1673ffffffffffffffffffffffffffffffffffffffff1681526020019081526020016000208190806001815401808255809150506001900390600052602060002001600090919091909150556123ea8582612b48565b8473ffffffffffffffffffffffffffffffffffffffff163373ffffffffffffffffffffffffffffffffffffffff167fc07e9c053c6fe0cb662c7a0ff5a607e0fac86213d7d37d11d4782498624851928387604051612449929190613ec7565b60405180910390a35050505050565b60006001600d60008573ffffffffffffffffffffffffffffffffffffffff1673ffffffffffffffffffffffffffffffffffffffff168152602001908152602001600020546124a691906143f3565b90506000600e60008573ffffffffffffffffffffffffffffffffffffffff1673ffffffffffffffffffffffffffffffffffffffff1681526020019081526020016000206000848152602001908152602001600020549050818114612605576000600c60008673ffffffffffffffffffffffffffffffffffffffff1673ffffffffffffffffffffffffffffffffffffffff168152602001908152602001600020600084815260200190815260200160002054905080600c60008773ffffffffffffffffffffffffffffffffffffffff1673ffffffffffffffffffffffffffffffffffffffff16815260200190815260200160002060008481526020019081526020016000208190555081600e60008773ffffffffffffffffffffffffffffffffffffffff1673ffffffffffffffffffffffffffffffffffffffff168152602001908152602001600020600083815260200190815260200160002081905550505b600e60008573ffffffffffffffffffffffffffffffffffffffff1673ffffffffffffffffffffffffffffffffffffffff168152602001908152602001600020600084815260200190815260200160002060009055600c60008573ffffffffffffffffffffffffffffffffffffffff1673ffffffffffffffffffffffffffffffffffffffff16815260200190815260200160002060008381526020019081526020016000206000905550505050565b60006126bf6009612ccb565b60006126cb6009612ce1565b90506126d78482612cef565b6126e18184612ebd565b8091505092915050565b8173ffffffffffffffffffffffffffffffffffffffff168373ffffffffffffffffffffffffffffffffffffffff16141561275a576040517f08c379a000000000000000000000000000000000000000000000000000000000815260040161275190613fb2565b60405180910390fd5b80600560008573ffffffffffffffffffffffffffffffffffffffff1673ffffffffffffffffffffffffffffffffffffffff16815260200190815260200160002060008473ffffffffffffffffffffffffffffffffffffffff1673ffffffffffffffffffffffffffffffffffffffff16815260200190815260200160002060006101000a81548160ff0219169083151502179055508173ffffffffffffffffffffffffffffffffffffffff168373ffffffffffffffffffffffffffffffffffffffff167f17307eab39ab6107e8899845ad3d59bd9653f200f220920489ca2b5937696c318360405161284b9190613e91565b60405180910390a3505050565b612863848484611e8d565b61286f84848484612f31565b6128ae576040517f08c379a00000000000000000000000000000000000000000000000000000000081526004016128a590613f12565b60405180910390fd5b50505050565b606060405180602001604052806000815250905090565b60606128d682611c82565b612915576040517f08c379a000000000000000000000000000000000000000000000000000000000815260040161290c90614172565b60405180910390fd5b600061291f6128b4565b9050600081511161293f576040518060200160405280600081525061296a565b80612949846130c8565b60405160200161295a929190613d9e565b6040516020818303038152906040525b915050919050565b600073ffffffffffffffffffffffffffffffffffffffff168273ffffffffffffffffffffffffffffffffffffffff1614156129b7576129b2838383613275565b612a32565b600073ffffffffffffffffffffffffffffffffffffffff168373ffffffffffffffffffffffffffffffffffffffff1614612a26576040517f08c379a0000000000000000000000000000000000000000000000000000000008152600401612a1d906141f2565b60405180910390fd5b612a31838383613275565b5b505050565b6000612a4282610edd565b9050612a5081600084612972565b612a5b600083611cf6565b6001600360008373ffffffffffffffffffffffffffffffffffffffff1673ffffffffffffffffffffffffffffffffffffffff1681526020019081526020016000206000828254612aab91906143f3565b925050819055506002600083815260200190815260200160002060006101000a81549073ffffffffffffffffffffffffffffffffffffffff021916905581600073ffffffffffffffffffffffffffffffffffffffff168273ffffffffffffffffffffffffffffffffffffffff167fddf252ad1be2c89b69c2b068fc378daa952ba7f163c4a11628f55a4df523b3ef60405160405180910390a45050565b80600c60008473ffffffffffffffffffffffffffffffffffffffff1673ffffffffffffffffffffffffffffffffffffffff1681526020019081526020016000206000600d60008673ffffffffffffffffffffffffffffffffffffffff1673ffffffffffffffffffffffffffffffffffffffff16815260200190815260200160002054815260200190815260200160002081905550600d60008373ffffffffffffffffffffffffffffffffffffffff1673ffffffffffffffffffffffffffffffffffffffff16815260200190815260200160002054600e60008473ffffffffffffffffffffffffffffffffffffffff1673ffffffffffffffffffffffffffffffffffffffff1681526020019081526020016000206000838152602001908152602001600020819055506001600d60008473ffffffffffffffffffffffffffffffffffffffff1673ffffffffffffffffffffffffffffffffffffffff1681526020019081526020016000206000828254612cc0919061436c565b925050819055505050565b6001816000016000828254019250508190555050565b600081600001549050919050565b600073ffffffffffffffffffffffffffffffffffffffff168273ffffffffffffffffffffffffffffffffffffffff161415612d5f576040517f08c379a0000000000000000000000000000000000000000000000000000000008152600401612d56906140d2565b60405180910390fd5b612d6881611c82565b15612da8576040517f08c379a0000000000000000000000000000000000000000000000000000000008152600401612d9f90613f52565b60405180910390fd5b612db460008383612972565b6001600360008473ffffffffffffffffffffffffffffffffffffffff1673ffffffffffffffffffffffffffffffffffffffff1681526020019081526020016000206000828254612e04919061436c565b92505081905550816002600083815260200190815260200160002060006101000a81548173ffffffffffffffffffffffffffffffffffffffff021916908373ffffffffffffffffffffffffffffffffffffffff160217905550808273ffffffffffffffffffffffffffffffffffffffff16600073ffffffffffffffffffffffffffffffffffffffff167fddf252ad1be2c89b69c2b068fc378daa952ba7f163c4a11628f55a4df523b3ef60405160405180910390a45050565b612ec682611c82565b612f05576040517f08c379a0000000000000000000000000000000000000000000000000000000008152600401612efc906140b2565b60405180910390fd5b80600660008481526020019081526020016000209080519060200190612f2c9291906132cd565b505050565b6000612f528473ffffffffffffffffffffffffffffffffffffffff1661327a565b156130bb578373ffffffffffffffffffffffffffffffffffffffff1663150b7a02612f7b611cee565b8786866040518563ffffffff1660e01b8152600401612f9d9493929190613ddd565b602060405180830381600087803b158015612fb757600080fd5b505af1925050508015612fe857506040513d601f19601f82011682018060405250810190612fe59190613897565b60015b61306b573d8060008114613018576040519150601f19603f3d011682016040523d82523d6000602084013e61301d565b606091505b50600081511415613063576040517f08c379a000000000000000000000000000000000000000000000000000000000815260040161305a90613f12565b60405180910390fd5b805181602001fd5b63150b7a0260e01b7bffffffffffffffffffffffffffffffffffffffffffffffffffffffff1916817bffffffffffffffffffffffffffffffffffffffffffffffffffffffff1916149150506130c0565b600190505b949350505050565b60606000821415613110576040518060400160405280600181526020017f30000000000000000000000000000000000000000000000000000000000000008152509050613270565b600082905060005b6000821461314257808061312b9061454a565b915050600a8261313b91906143c2565b9150613118565b60008167ffffffffffffffff811115613184577f4e487b7100000000000000000000000000000000000000000000000000000000600052604160045260246000fd5b6040519080825280601f01601f1916602001820160405280156131b65781602001600182028036833780820191505090505b5090505b60008514613269576001826131cf91906143f3565b9150600a856131de91906145c1565b60306131ea919061436c565b60f81b818381518110613226577f4e487b7100000000000000000000000000000000000000000000000000000000600052603260045260246000fd5b60200101907effffffffffffffffffffffffffffffffffffffffffffffffffffffffffffff1916908160001a905350600a8561326291906143c2565b94506131ba565b8093505050505b919050565b505050565b600080823b905060008111915050919050565b508054613299906144e7565b6000825580601f106132ab57506132ca565b601f0160209004906000526020600020908101906132c99190613353565b5b50565b8280546132d9906144e7565b90600052602060002090601f0160209004810192826132fb5760008555613342565b82601f1061331457805160ff1916838001178555613342565b82800160010185558215613342579182015b82811115613341578251825591602001919060010190613326565b5b50905061334f9190613353565b5090565b5b8082111561336c576000816000905550600101613354565b5090565b600061338361337e8461429b565b614276565b905080838252602082019050828560208602820111156133a257600080fd5b60005b858110156133d257816133b88882613458565b8452602084019350602083019250506001810190506133a5565b5050509392505050565b60006133ef6133ea846142c7565b614276565b90508281526020810184848401111561340757600080fd5b6134128482856144a5565b509392505050565b600061342d613428846142f8565b614276565b90508281526020810184848401111561344557600080fd5b6134508482856144a5565b509392505050565b60008135905061346781614ce1565b92915050565b600082601f83011261347e57600080fd5b813561348e848260208601613370565b91505092915050565b6000813590506134a681614cf8565b92915050565b6000813590506134bb81614d0f565b92915050565b6000813590506134d081614d26565b92915050565b6000815190506134e581614d26565b92915050565b600082601f8301126134fc57600080fd5b813561350c8482602086016133dc565b91505092915050565b600082601f83011261352657600080fd5b813561353684826020860161341a565b91505092915050565b60008135905061354e81614d3d565b92915050565b60006020828403121561356657600080fd5b600061357484828501613458565b91505092915050565b6000806040838503121561359057600080fd5b600061359e85828601613458565b92505060206135af85828601613458565b9150509250929050565b6000806000606084860312156135ce57600080fd5b60006135dc86828701613458565b93505060206135ed86828701613458565b92505060406135fe8682870161353f565b9150509250925092565b6000806000806080858703121561361e57600080fd5b600061362c87828801613458565b945050602061363d87828801613458565b935050604061364e8782880161353f565b925050606085013567ffffffffffffffff81111561366b57600080fd5b613677878288016134eb565b91505092959194509250565b6000806040838503121561369657600080fd5b60006136a485828601613458565b92505060206136b585828601613497565b9150509250929050565b600080604083850312156136d257600080fd5b60006136e085828601613458565b92505060206136f1858286016134ac565b9150509250929050565b6000806040838503121561370e57600080fd5b600061371c85828601613458565b925050602061372d8582860161353f565b9150509250929050565b6000806000806080858703121561374d57600080fd5b600061375b87828801613458565b945050602061376c8782880161353f565b935050604061377d87828801613497565b925050606085013567ffffffffffffffff81111561379a57600080fd5b6137a687828801613515565b91505092959194509250565b600080600080608085870312156137c857600080fd5b600085013567ffffffffffffffff8111156137e257600080fd5b6137ee8782880161346d565b94505060206137ff8782880161353f565b935050604061381087828801613497565b925050606085013567ffffffffffffffff81111561382d57600080fd5b61383987828801613515565b91505092959194509250565b60006020828403121561385757600080fd5b6000613865848285016134ac565b91505092915050565b60006020828403121561388057600080fd5b600061388e848285016134c1565b91505092915050565b6000602082840312156138a957600080fd5b60006138b7848285016134d6565b91505092915050565b6000602082840312156138d257600080fd5b60006138e08482850161353f565b91505092915050565b6138f281614427565b82525050565b61390961390482614427565b614593565b82525050565b61391881614439565b82525050565b61392781614445565b82525050565b600061393882614329565b613942818561433f565b93506139528185602086016144b4565b61395b816146ae565b840191505092915050565b600061397182614334565b61397b8185614350565b935061398b8185602086016144b4565b613994816146ae565b840191505092915050565b60006139aa82614334565b6139b48185614361565b93506139c48185602086016144b4565b80840191505092915050565b60006139dd603283614350565b91506139e8826146cc565b604082019050919050565b6000613a00602683614350565b9150613a0b8261471b565b604082019050919050565b6000613a23601c83614350565b9150613a2e8261476a565b602082019050919050565b6000613a46601383614350565b9150613a5182614793565b602082019050919050565b6000613a69602483614350565b9150613a74826147bc565b604082019050919050565b6000613a8c601983614350565b9150613a978261480b565b602082019050919050565b6000613aaf601683614350565b9150613aba82614834565b602082019050919050565b6000613ad2602c83614350565b9150613add8261485d565b604082019050919050565b6000613af5600f83614350565b9150613b00826148ac565b602082019050919050565b6000613b18601883614350565b9150613b23826148d5565b602082019050919050565b6000613b3b603883614350565b9150613b46826148fe565b604082019050919050565b6000613b5e602a83614350565b9150613b698261494d565b604082019050919050565b6000613b81602983614350565b9150613b8c8261499c565b604082019050919050565b6000613ba4602e83614350565b9150613baf826149eb565b604082019050919050565b6000613bc7602083614350565b9150613bd282614a3a565b602082019050919050565b6000613bea603183614350565b9150613bf582614a63565b604082019050919050565b6000613c0d602c83614350565b9150613c1882614ab2565b604082019050919050565b6000613c30602083614350565b9150613c3b82614b01565b602082019050919050565b6000613c53602983614350565b9150613c5e82614b2a565b604082019050919050565b6000613c76602f83614350565b9150613c8182614b79565b604082019050919050565b6000613c99602083614350565b9150613ca482614bc8565b602082019050919050565b6000613cbc602183614350565b9150613cc782614bf1565b604082019050919050565b6000613cdf603183614350565b9150613cea82614c40565b604082019050919050565b6000613d02601f83614350565b9150613d0d82614c8f565b602082019050919050565b6000613d25601f83614350565b9150613d3082614cb8565b602082019050919050565b613d448161449b565b82525050565b613d5b613d568261449b565b6145b7565b82525050565b6000613d6d82866138f8565b601482019150613d7d82856138f8565b601482019150613d8d8284613d4a565b602082019150819050949350505050565b6000613daa828561399f565b9150613db6828461399f565b91508190509392505050565b6000602082019050613dd760008301846138e9565b92915050565b6000608082019050613df260008301876138e9565b613dff60208301866138e9565b613e0c6040830185613d3b565b8181036060830152613e1e818461392d565b905095945050505050565b600060c082019050613e3e60008301896138e9565b613e4b60208301886138e9565b613e586040830187613d3b565b8181036060830152613e6a8186613966565b9050613e79608083018561390f565b613e8660a083018461390f565b979650505050505050565b6000602082019050613ea6600083018461390f565b92915050565b6000602082019050613ec1600083018461391e565b92915050565b6000604082019050613edc600083018561391e565b613ee96020830184613d3b565b9392505050565b60006020820190508181036000830152613f0a8184613966565b905092915050565b60006020820190508181036000830152613f2b816139d0565b9050919050565b60006020820190508181036000830152613f4b816139f3565b9050919050565b60006020820190508181036000830152613f6b81613a16565b9050919050565b60006020820190508181036000830152613f8b81613a39565b9050919050565b60006020820190508181036000830152613fab81613a5c565b9050919050565b60006020820190508181036000830152613fcb81613a7f565b9050919050565b60006020820190508181036000830152613feb81613aa2565b9050919050565b6000602082019050818103600083015261400b81613ac5565b9050919050565b6000602082019050818103600083015261402b81613ae8565b9050919050565b6000602082019050818103600083015261404b81613b0b565b9050919050565b6000602082019050818103600083015261406b81613b2e565b9050919050565b6000602082019050818103600083015261408b81613b51565b9050919050565b600060208201905081810360008301526140ab81613b74565b9050919050565b600060208201905081810360008301526140cb81613b97565b9050919050565b600060208201905081810360008301526140eb81613bba565b9050919050565b6000602082019050818103600083015261410b81613bdd565b9050919050565b6000602082019050818103600083015261412b81613c00565b9050919050565b6000602082019050818103600083015261414b81613c23565b9050919050565b6000602082019050818103600083015261416b81613c46565b9050919050565b6000602082019050818103600083015261418b81613c69565b9050919050565b600060208201905081810360008301526141ab81613c8c565b9050919050565b600060208201905081810360008301526141cb81613caf565b9050919050565b600060208201905081810360008301526141eb81613cd2565b9050919050565b6000602082019050818103600083015261420b81613cf5565b9050919050565b6000602082019050818103600083015261422b81613d18565b9050919050565b60006020820190506142476000830184613d3b565b92915050565b60006040820190506142626000830185613d3b565b61426f60208301846138e9565b9392505050565b6000614280614291565b905061428c8282614519565b919050565b6000604051905090565b600067ffffffffffffffff8211156142b6576142b561467f565b5b602082029050602081019050919050565b600067ffffffffffffffff8211156142e2576142e161467f565b5b6142eb826146ae565b9050602081019050919050565b600067ffffffffffffffff8211156143135761431261467f565b5b61431c826146ae565b9050602081019050919050565b600081519050919050565b600081519050919050565b600082825260208201905092915050565b600082825260208201905092915050565b600081905092915050565b60006143778261449b565b91506143828361449b565b9250827fffffffffffffffffffffffffffffffffffffffffffffffffffffffffffffffff038211156143b7576143b66145f2565b5b828201905092915050565b60006143cd8261449b565b91506143d88361449b565b9250826143e8576143e7614621565b5b828204905092915050565b60006143fe8261449b565b91506144098361449b565b92508282101561441c5761441b6145f2565b5b828203905092915050565b60006144328261447b565b9050919050565b60008115159050919050565b6000819050919050565b60007fffffffff0000000000000000000000000000000000000000000000000000000082169050919050565b600073ffffffffffffffffffffffffffffffffffffffff82169050919050565b6000819050919050565b82818337600083830152505050565b60005b838110156144d25780820151818401526020810190506144b7565b838111156144e1576000848401525b50505050565b600060028204905060018216806144ff57607f821691505b6020821081141561451357614512614650565b5b50919050565b614522826146ae565b810181811067ffffffffffffffff821117156145415761454061467f565b5b80604052505050565b60006145558261449b565b91507fffffffffffffffffffffffffffffffffffffffffffffffffffffffffffffffff821415614588576145876145f2565b5b600182019050919050565b600061459e826145a5565b9050919050565b60006145b0826146bf565b9050919050565b6000819050919050565b60006145cc8261449b565b91506145d78361449b565b9250826145e7576145e6614621565b5b828206905092915050565b7f4e487b7100000000000000000000000000000000000000000000000000000000600052601160045260246000fd5b7f4e487b7100000000000000000000000000000000000000000000000000000000600052601260045260246000fd5b7f4e487b7100000000000000000000000000000000000000000000000000000000600052602260045260246000fd5b7f4e487b7100000000000000000000000000000000000000000000000000000000600052604160045260246000fd5b6000601f19601f8301169050919050565b60008160601b9050919050565b7f4552433732313a207472616e7366657220746f206e6f6e20455243373231526560008201527f63656976657220696d706c656d656e7465720000000000000000000000000000602082015250565b7f4f776e61626c653a206e6577206f776e657220697320746865207a65726f206160008201527f6464726573730000000000000000000000000000000000000000000000000000602082015250565b7f4552433732313a20746f6b656e20616c7265616479206d696e74656400000000600082015250565b7f70726f706f7365206e6f74206578697374732e00000000000000000000000000600082015250565b7f4552433732313a207472616e7366657220746f20746865207a65726f2061646460008201527f7265737300000000000000000000000000000000000000000000000000000000602082015250565b7f4552433732313a20617070726f766520746f2063616c6c657200000000000000600082015250565b7f416c7265616479206163636570742070726f706f736500000000000000000000600082015250565b7f4552433732313a206f70657261746f7220717565727920666f72206e6f6e657860008201527f697374656e7420746f6b656e0000000000000000000000000000000000000000602082015250565b7f506c6561736520706179206665652e0000000000000000000000000000000000600082015250565b7f416e206f6666657220616c7265616479206578697374732e0000000000000000600082015250565b7f4552433732313a20617070726f76652063616c6c6572206973206e6f74206f7760008201527f6e6572206e6f7220617070726f76656420666f7220616c6c0000000000000000602082015250565b7f4552433732313a2062616c616e636520717565727920666f7220746865207a6560008201527f726f206164647265737300000000000000000000000000000000000000000000602082015250565b7f4552433732313a206f776e657220717565727920666f72206e6f6e657869737460008201527f656e7420746f6b656e0000000000000000000000000000000000000000000000602082015250565b7f45524337323155524953746f726167653a2055524920736574206f66206e6f6e60008201527f6578697374656e7420746f6b656e000000000000000000000000000000000000602082015250565b7f4552433732313a206d696e7420746f20746865207a65726f2061646472657373600082015250565b7f45524337323155524953746f726167653a2055524920717565727920666f722060008201527f6e6f6e6578697374656e7420746f6b656e000000000000000000000000000000602082015250565b7f4552433732313a20617070726f76656420717565727920666f72206e6f6e657860008201527f697374656e7420746f6b656e0000000000000000000000000000000000000000602082015250565b7f4f776e61626c653a2063616c6c6572206973206e6f7420746865206f776e6572600082015250565b7f4552433732313a207472616e73666572206f6620746f6b656e2074686174206960008201527f73206e6f74206f776e0000000000000000000000000000000000000000000000602082015250565b7f4552433732314d657461646174613a2055524920717565727920666f72206e6f60008201527f6e6578697374656e7420746f6b656e0000000000000000000000000000000000602082015250565b7f63616c6c6572206973206e6f74206f776e6572206e6f7220617070726f766564600082015250565b7f4552433732313a20617070726f76616c20746f2063757272656e74206f776e6560008201527f7200000000000000000000000000000000000000000000000000000000000000602082015250565b7f4552433732313a207472616e736665722063616c6c6572206973206e6f74206f60008201527f776e6572206e6f7220617070726f766564000000000000000000000000000000602082015250565b7f43616e6e6f74207472616e7366657220736f756c20626f6e6420746f6b656e00600082015250565b7f5265656e7472616e637947756172643a207265656e7472616e742063616c6c00600082015250565b614cea81614427565b8114614cf557600080fd5b50565b614d0181614439565b8114614d0c57600080fd5b50565b614d1881614445565b8114614d2357600080fd5b50565b614d2f8161444f565b8114614d3a57600080fd5b50565b614d468161449b565b8114614d5157600080fd5b5056fea26469706673582212206afded9877057d226ec66748e35402680629dcc0cb03dd5aee312aec93d7059964736f6c63430008040033",
  "linkReferences": {},
  "deployedLinkReferences": {}
}