{
  "_format": "hh-sol-artifact-1",
  "contractName": "SoulToken",
  "sourceName": "contracts/SoulToken.sol",
  "abi": [
    {
      "inputs": [
        {
          "internalType": "uint256",
          "name": "_fee",
          "type": "uint256"
        }
      ],
      "stateMutability": "nonpayable",
      "type": "constructor"
    },
    {
      "anonymous": false,
      "inputs": [
        {
          "indexed": true,
          "internalType": "address",
          "name": "owner",
          "type": "address"
        },
        {
          "indexed": true,
          "internalType": "address",
          "name": "approved",
          "type": "address"
        },
        {
          "indexed": true,
          "internalType": "uint256",
          "name": "tokenId",
          "type": "uint256"
        }
      ],
      "name": "Approval",
      "type": "event"
    },
    {
      "anonymous": false,
      "inputs": [
        {
          "indexed": true,
          "internalType": "address",
          "name": "owner",
          "type": "address"
        },
        {
          "indexed": true,
          "internalType": "address",
          "name": "operator",
          "type": "address"
        },
        {
          "indexed": false,
          "internalType": "bool",
          "name": "approved",
          "type": "bool"
        }
      ],
      "name": "ApprovalForAll",
      "type": "event"
    },
    {
      "anonymous": false,
      "inputs": [
        {
          "indexed": true,
          "internalType": "address",
          "name": "from",
          "type": "address"
        },
        {
          "indexed": true,
          "internalType": "address",
          "name": "to",
          "type": "address"
        },
        {
          "indexed": false,
          "internalType": "bytes32",
          "name": "proposeId",
          "type": "bytes32"
        },
        {
          "indexed": false,
          "internalType": "uint256",
          "name": "eventId",
          "type": "uint256"
        }
      ],
      "name": "MakePropose",
      "type": "event"
    },
    {
      "anonymous": false,
      "inputs": [
        {
          "indexed": true,
          "internalType": "address",
          "name": "previousOwner",
          "type": "address"
        },
        {
          "indexed": true,
          "internalType": "address",
          "name": "newOwner",
          "type": "address"
        }
      ],
      "name": "OwnershipTransferred",
      "type": "event"
    },
    {
      "anonymous": false,
      "inputs": [
        {
          "indexed": true,
          "internalType": "uint256",
          "name": "tokenId",
          "type": "uint256"
        },
        {
          "indexed": true,
          "internalType": "string",
          "name": "tokenURI",
          "type": "string"
        }
      ],
      "name": "TokenMinted",
      "type": "event"
    },
    {
      "anonymous": false,
      "inputs": [
        {
          "indexed": true,
          "internalType": "address",
          "name": "from",
          "type": "address"
        },
        {
          "indexed": true,
          "internalType": "address",
          "name": "to",
          "type": "address"
        },
        {
          "indexed": true,
          "internalType": "uint256",
          "name": "tokenId",
          "type": "uint256"
        }
      ],
      "name": "Transfer",
      "type": "event"
    },
    {
      "anonymous": false,
      "inputs": [
        {
          "indexed": false,
          "internalType": "uint256",
          "name": "tokenId",
          "type": "uint256"
        },
        {
          "indexed": false,
          "internalType": "address",
          "name": "withnessAddr",
          "type": "address"
        }
      ],
      "name": "Witness",
      "type": "event"
    },
    {
      "inputs": [
        {
          "internalType": "address",
          "name": "to",
          "type": "address"
        },
        {
          "internalType": "uint256",
          "name": "tokenId",
          "type": "uint256"
        }
      ],
      "name": "approve",
      "outputs": [],
      "stateMutability": "nonpayable",
      "type": "function"
    },
    {
      "inputs": [
        {
          "internalType": "bytes32",
          "name": "_proposeHash",
          "type": "bytes32"
        }
      ],
      "name": "approvePropose",
      "outputs": [],
      "stateMutability": "nonpayable",
      "type": "function"
    },
    {
      "inputs": [
        {
          "internalType": "address",
          "name": "owner",
          "type": "address"
        }
      ],
      "name": "balanceOf",
      "outputs": [
        {
          "internalType": "uint256",
          "name": "",
          "type": "uint256"
        }
      ],
      "stateMutability": "view",
      "type": "function"
    },
    {
      "inputs": [
        {
          "internalType": "uint256",
          "name": "tokenId",
          "type": "uint256"
        }
      ],
      "name": "burn",
      "outputs": [],
      "stateMutability": "nonpayable",
      "type": "function"
    },
    {
      "inputs": [],
      "name": "fee",
      "outputs": [
        {
          "internalType": "uint256",
          "name": "",
          "type": "uint256"
        }
      ],
      "stateMutability": "view",
      "type": "function"
    },
    {
      "inputs": [
        {
          "internalType": "uint256",
          "name": "tokenId",
          "type": "uint256"
        }
      ],
      "name": "getApproved",
      "outputs": [
        {
          "internalType": "address",
          "name": "",
          "type": "address"
        }
      ],
      "stateMutability": "view",
      "type": "function"
    },
    {
      "inputs": [
        {
          "internalType": "address",
          "name": "_addr",
          "type": "address"
        }
      ],
      "name": "getproposeIdByAddr",
      "outputs": [
        {
          "internalType": "bytes32[]",
          "name": "",
          "type": "bytes32[]"
        }
      ],
      "stateMutability": "view",
      "type": "function"
    },
    {
      "inputs": [
        {
          "internalType": "address",
          "name": "owner",
          "type": "address"
        },
        {
          "internalType": "address",
          "name": "operator",
          "type": "address"
        }
      ],
      "name": "isApprovedForAll",
      "outputs": [
        {
          "internalType": "bool",
          "name": "",
          "type": "bool"
        }
      ],
      "stateMutability": "view",
      "type": "function"
    },
    {
      "inputs": [],
      "name": "name",
      "outputs": [
        {
          "internalType": "string",
          "name": "",
          "type": "string"
        }
      ],
      "stateMutability": "view",
      "type": "function"
    },
    {
      "inputs": [],
      "name": "owner",
      "outputs": [
        {
          "internalType": "address",
          "name": "",
          "type": "address"
        }
      ],
      "stateMutability": "view",
      "type": "function"
    },
    {
      "inputs": [
        {
          "internalType": "uint256",
          "name": "tokenId",
          "type": "uint256"
        }
      ],
      "name": "ownerOf",
      "outputs": [
        {
          "internalType": "address",
          "name": "",
          "type": "address"
        }
      ],
      "stateMutability": "view",
      "type": "function"
    },
    {
      "inputs": [
        {
          "internalType": "address",
          "name": "",
          "type": "address"
        },
        {
          "internalType": "uint256",
          "name": "",
          "type": "uint256"
        }
      ],
      "name": "pendingConfirm",
      "outputs": [
        {
          "internalType": "bytes32",
          "name": "",
          "type": "bytes32"
        }
      ],
      "stateMutability": "view",
      "type": "function"
    },
    {
      "inputs": [
        {
          "internalType": "address",
          "name": "_party",
          "type": "address"
        },
        {
          "internalType": "uint256",
          "name": "index",
          "type": "uint256"
        }
      ],
      "name": "pendingConfirmByIndex",
      "outputs": [
        {
          "internalType": "bytes32",
          "name": "",
          "type": "bytes32"
        }
      ],
      "stateMutability": "view",
      "type": "function"
    },
    {
      "inputs": [
        {
          "internalType": "address",
          "name": "",
          "type": "address"
        }
      ],
      "name": "pendingConfirmCount",
      "outputs": [
        {
          "internalType": "uint256",
          "name": "",
          "type": "uint256"
        }
      ],
      "stateMutability": "view",
      "type": "function"
    },
    {
      "inputs": [
        {
          "internalType": "address",
          "name": "",
          "type": "address"
        },
        {
          "internalType": "bytes32",
          "name": "",
          "type": "bytes32"
        }
      ],
      "name": "pendingConfirmHashIndex",
      "outputs": [
        {
          "internalType": "uint256",
          "name": "",
          "type": "uint256"
        }
      ],
      "stateMutability": "view",
      "type": "function"
    },
    {
      "inputs": [
        {
          "internalType": "address",
          "name": "_party",
          "type": "address"
        },
        {
          "internalType": "bytes32",
          "name": "_hashId",
          "type": "bytes32"
        }
      ],
      "name": "pendingConfirmIndexByHash",
      "outputs": [
        {
          "internalType": "uint256",
          "name": "",
          "type": "uint256"
        }
      ],
      "stateMutability": "view",
      "type": "function"
    },
    {
      "inputs": [
        {
          "internalType": "address",
          "name": "_from",
          "type": "address"
        },
        {
          "internalType": "address",
          "name": "_to",
          "type": "address"
        },
        {
          "internalType": "uint256",
          "name": "_eventId",
          "type": "uint256"
        }
      ],
      "name": "proposeExists",
      "outputs": [
        {
          "internalType": "bool",
          "name": "",
          "type": "bool"
        }
      ],
      "stateMutability": "view",
      "type": "function"
    },
    {
      "inputs": [
        {
          "internalType": "bytes32",
          "name": "_proposeHash",
          "type": "bytes32"
        }
      ],
      "name": "proposeHashExists",
      "outputs": [
        {
          "internalType": "bool",
          "name": "",
          "type": "bool"
        }
      ],
      "stateMutability": "view",
      "type": "function"
    },
    {
      "inputs": [
        {
          "internalType": "address",
          "name": "",
          "type": "address"
        },
        {
          "internalType": "uint256",
          "name": "",
          "type": "uint256"
        }
      ],
      "name": "proposeIdByAddr",
      "outputs": [
        {
          "internalType": "bytes32",
          "name": "",
          "type": "bytes32"
        }
      ],
      "stateMutability": "view",
      "type": "function"
    },
    {
      "inputs": [
        {
          "internalType": "bytes32",
          "name": "",
          "type": "bytes32"
        }
      ],
      "name": "proposeInfo",
      "outputs": [
        {
          "internalType": "address",
          "name": "from",
          "type": "address"
        },
        {
          "internalType": "address",
          "name": "to",
          "type": "address"
        },
        {
          "internalType": "uint256",
          "name": "eventId",
          "type": "uint256"
        },
        {
          "internalType": "string",
          "name": "tokenURI",
          "type": "string"
        },
        {
          "internalType": "bool",
          "name": "acceptStatus",
          "type": "bool"
        },
        {
          "internalType": "bool",
          "name": "mutualMint",
          "type": "bool"
        },
        {
          "internalType": "uint256",
          "name": "createAt",
          "type": "uint256"
        },
        {
          "internalType": "uint256",
          "name": "confirmAt",
          "type": "uint256"
        }
      ],
      "stateMutability": "view",
      "type": "function"
    },
    {
      "inputs": [],
      "name": "renounceOwnership",
      "outputs": [],
      "stateMutability": "nonpayable",
      "type": "function"
    },
    {
      "inputs": [
        {
          "internalType": "address",
          "name": "from",
          "type": "address"
        },
        {
          "internalType": "address",
          "name": "to",
          "type": "address"
        },
        {
          "internalType": "uint256",
          "name": "tokenId",
          "type": "uint256"
        }
      ],
      "name": "safeTransferFrom",
      "outputs": [],
      "stateMutability": "nonpayable",
      "type": "function"
    },
    {
      "inputs": [
        {
          "internalType": "address",
          "name": "from",
          "type": "address"
        },
        {
          "internalType": "address",
          "name": "to",
          "type": "address"
        },
        {
          "internalType": "uint256",
          "name": "tokenId",
          "type": "uint256"
        },
        {
          "internalType": "bytes",
          "name": "_data",
          "type": "bytes"
        }
      ],
      "name": "safeTransferFrom",
      "outputs": [],
      "stateMutability": "nonpayable",
      "type": "function"
    },
    {
      "inputs": [
        {
          "internalType": "address[]",
          "name": "_parties",
          "type": "address[]"
        },
        {
          "internalType": "uint256",
          "name": "_eventId",
          "type": "uint256"
        },
        {
          "internalType": "bool",
          "name": "_mutualMint",
          "type": "bool"
        },
        {
          "internalType": "string",
          "name": "_tokenURI",
          "type": "string"
        }
      ],
      "name": "sendBatchRequest",
      "outputs": [],
      "stateMutability": "payable",
      "type": "function"
    },
    {
      "inputs": [
        {
          "internalType": "address",
          "name": "_party",
          "type": "address"
        },
        {
          "internalType": "uint256",
          "name": "_eventId",
          "type": "uint256"
        },
        {
          "internalType": "bool",
          "name": "_mutualMint",
          "type": "bool"
        },
        {
          "internalType": "string",
          "name": "_tokenURI",
          "type": "string"
        }
      ],
      "name": "sendRequest",
      "outputs": [],
      "stateMutability": "payable",
      "type": "function"
    },
    {
      "inputs": [
        {
          "internalType": "address",
          "name": "operator",
          "type": "address"
        },
        {
          "internalType": "bool",
          "name": "approved",
          "type": "bool"
        }
      ],
      "name": "setApprovalForAll",
      "outputs": [],
      "stateMutability": "nonpayable",
      "type": "function"
    },
    {
      "inputs": [
        {
          "internalType": "bytes4",
          "name": "interfaceId",
          "type": "bytes4"
        }
      ],
      "name": "supportsInterface",
      "outputs": [
        {
          "internalType": "bool",
          "name": "",
          "type": "bool"
        }
      ],
      "stateMutability": "view",
      "type": "function"
    },
    {
      "inputs": [],
      "name": "symbol",
      "outputs": [
        {
          "internalType": "string",
          "name": "",
          "type": "string"
        }
      ],
      "stateMutability": "view",
      "type": "function"
    },
    {
      "inputs": [
        {
          "internalType": "uint256",
          "name": "tokenId",
          "type": "uint256"
        }
      ],
      "name": "tokenURI",
      "outputs": [
        {
          "internalType": "string",
          "name": "",
          "type": "string"
        }
      ],
      "stateMutability": "view",
      "type": "function"
    },
    {
      "inputs": [
        {
          "internalType": "address",
          "name": "from",
          "type": "address"
        },
        {
          "internalType": "address",
          "name": "to",
          "type": "address"
        },
        {
          "internalType": "uint256",
          "name": "tokenId",
          "type": "uint256"
        }
      ],
      "name": "transferFrom",
      "outputs": [],
      "stateMutability": "nonpayable",
      "type": "function"
    },
    {
      "inputs": [
        {
          "internalType": "address",
          "name": "newOwner",
          "type": "address"
        }
      ],
      "name": "transferOwnership",
      "outputs": [],
      "stateMutability": "nonpayable",
      "type": "function"
    },
    {
      "inputs": [],
      "name": "withdraw",
      "outputs": [],
      "stateMutability": "nonpayable",
      "type": "function"
    },
    {
      "inputs": [
        {
          "internalType": "uint256",
          "name": "tokenId",
          "type": "uint256"
        }
      ],
      "name": "witness",
      "outputs": [],
      "stateMutability": "nonpayable",
      "type": "function"
    }
  ],
  "bytecode": "0x60806040523480156200001157600080fd5b50604051620053b7380380620053b78339818101604052810190620000379190620002a2565b6040518060400160405280600d81526020017f50726f6f66204f6620536f756c000000000000000000000000000000000000008152506040518060400160405280600381526020017f504f5300000000000000000000000000000000000000000000000000000000008152508160009080519060200190620000bb929190620001db565b508060019080519060200190620000d4929190620001db565b505050620000f7620000eb6200010d60201b60201c565b6200011560201b60201c565b600160088190555080600f819055505062000357565b600033905090565b6000600760009054906101000a900473ffffffffffffffffffffffffffffffffffffffff16905081600760006101000a81548173ffffffffffffffffffffffffffffffffffffffff021916908373ffffffffffffffffffffffffffffffffffffffff1602179055508173ffffffffffffffffffffffffffffffffffffffff168173ffffffffffffffffffffffffffffffffffffffff167f8be0079c531659141344cd1fd0a4f28419497f9722a3daafe3b4186f6b6457e060405160405180910390a35050565b828054620001e990620002d8565b90600052602060002090601f0160209004810192826200020d576000855562000259565b82601f106200022857805160ff191683800117855562000259565b8280016001018555821562000259579182015b82811115620002585782518255916020019190600101906200023b565b5b5090506200026891906200026c565b5090565b5b80821115620002875760008160009055506001016200026d565b5090565b6000815190506200029c816200033d565b92915050565b600060208284031215620002b557600080fd5b6000620002c5848285016200028b565b91505092915050565b6000819050919050565b60006002820490506001821680620002f157607f821691505b602082108114156200030857620003076200030e565b5b50919050565b7f4e487b7100000000000000000000000000000000000000000000000000000000600052602260045260246000fd5b6200034881620002ce565b81146200035457600080fd5b50565b61505080620003676000396000f3fe6080604052600436106101ee5760003560e01c806370a082311161010d578063a1dead29116100a0578063d1a8daed1161006f578063d1a8daed14610742578063ddca3f431461077f578063e985e9c5146107aa578063f02b3ad0146107e7578063f2fde38b14610824576101ee565b8063a1dead291461066f578063a22cb465146106b3578063b88d4fde146106dc578063c87b56dd14610705576101ee565b806384945433116100dc57806384945433146105d45780638da5cb5b146105f057806395d89b411461061b5780639b9419c414610646576101ee565b806370a082311461053b578063715018a61461057857806379d8912a1461058f57806383608d8c146105ab576101ee565b806323b872dd1161018557806344d288231161015457806344d28823146104475780634ac1d82b146104845780635b6fcedd146104c15780636352211e146104fe576101ee565b806323b872dd146103b55780633ccfd60b146103de57806342842e0e146103f557806342966c681461041e576101ee565b8063095ea7b3116101c1578063095ea7b3146102d55780630ce3fd7b146102fe5780630fe96a521461033b57806319eeb63b14610378576101ee565b806301ffc9a7146101f357806306fdde031461023057806307298bd91461025b578063081812fc14610298575b600080fd5b3480156101ff57600080fd5b5061021a60048036038101906102159190613a20565b61084d565b604051610227919061411e565b60405180910390f35b34801561023c57600080fd5b5061024561092f565b604051610252919061417d565b60405180910390f35b34801561026757600080fd5b50610282600480360381019061027d919061376b565b6109c1565b60405161028f919061411e565b60405180910390f35b3480156102a457600080fd5b506102bf60048036038101906102ba9190613a72565b610a52565b6040516102cc9190614010565b60405180910390f35b3480156102e157600080fd5b506102fc60048036038101906102f791906138ad565b610ad7565b005b34801561030a57600080fd5b5061032560048036038101906103209190613706565b610bef565b60405161033291906144bf565b60405180910390f35b34801561034757600080fd5b50610362600480360381019061035d91906139f7565b610c07565b60405161036f919061411e565b60405180910390f35b34801561038457600080fd5b5061039f600480360381019061039a9190613871565b610c86565b6040516103ac91906144bf565b60405180910390f35b3480156103c157600080fd5b506103dc60048036038101906103d7919061376b565b610ce1565b005b3480156103ea57600080fd5b506103f3610d41565b005b34801561040157600080fd5b5061041c6004803603810190610417919061376b565b610e06565b005b34801561042a57600080fd5b5061044560048036038101906104409190613a72565b610e26565b005b34801561045357600080fd5b5061046e600480360381019061046991906138ad565b610e82565b60405161047b9190614139565b60405180910390f35b34801561049057600080fd5b506104ab60048036038101906104a69190613871565b610ea7565b6040516104b891906144bf565b60405180910390f35b3480156104cd57600080fd5b506104e860048036038101906104e391906138ad565b610ecc565b6040516104f59190614139565b60405180910390f35b34801561050a57600080fd5b5061052560048036038101906105209190613a72565b610f27565b6040516105329190614010565b60405180910390f35b34801561054757600080fd5b50610562600480360381019061055d9190613706565b610fd9565b60405161056f91906144bf565b60405180910390f35b34801561058457600080fd5b5061058d611091565b005b6105a960048036038101906105a491906138e9565b611119565b005b3480156105b757600080fd5b506105d260048036038101906105cd91906139f7565b611210565b005b6105ee60048036038101906105e99190613964565b6114df565b005b3480156105fc57600080fd5b5061060561163c565b6040516106129190614010565b60405180910390f35b34801561062757600080fd5b50610630611666565b60405161063d919061417d565b60405180910390f35b34801561065257600080fd5b5061066d60048036038101906106689190613a72565b6116f8565b005b34801561067b57600080fd5b50610696600480360381019061069191906139f7565b61178a565b6040516106aa989796959493929190614077565b60405180910390f35b3480156106bf57600080fd5b506106da60048036038101906106d59190613835565b6118b4565b005b3480156106e857600080fd5b5061070360048036038101906106fe91906137ba565b6118ca565b005b34801561071157600080fd5b5061072c60048036038101906107279190613a72565b61192c565b604051610739919061417d565b60405180910390f35b34801561074e57600080fd5b5061076960048036038101906107649190613706565b611a7e565b60405161077691906140fc565b60405180910390f35b34801561078b57600080fd5b50610794611b15565b6040516107a191906144bf565b60405180910390f35b3480156107b657600080fd5b506107d160048036038101906107cc919061372f565b611b1b565b6040516107de919061411e565b60405180910390f35b3480156107f357600080fd5b5061080e600480360381019061080991906138ad565b611baf565b60405161081b9190614139565b60405180910390f35b34801561083057600080fd5b5061084b60048036038101906108469190613706565b611be0565b005b60007f80ac58cd000000000000000000000000000000000000000000000000000000007bffffffffffffffffffffffffffffffffffffffffffffffffffffffff1916827bffffffffffffffffffffffffffffffffffffffffffffffffffffffff1916148061091857507f5b5e139f000000000000000000000000000000000000000000000000000000007bffffffffffffffffffffffffffffffffffffffffffffffffffffffff1916827bffffffffffffffffffffffffffffffffffffffffffffffffffffffff1916145b80610928575061092782611cd8565b5b9050919050565b60606000805461093e906147ad565b80601f016020809104026020016040519081016040528092919081815260200182805461096a906147ad565b80156109b75780601f1061098c576101008083540402835291602001916109b7565b820191906000526020600020905b81548152906001019060200180831161099a57829003601f168201915b5050505050905090565b6000806109cf858585611d42565b90508473ffffffffffffffffffffffffffffffffffffffff16600a600083815260200190815260200160002060000160009054906101000a900473ffffffffffffffffffffffffffffffffffffffff1673ffffffffffffffffffffffffffffffffffffffff161415610a45576001915050610a4b565b60009150505b9392505050565b6000610a5d82611d78565b610a9c576040517f08c379a0000000000000000000000000000000000000000000000000000000008152600401610a939061439f565b60405180910390fd5b6004600083815260200190815260200160002060009054906101000a900473ffffffffffffffffffffffffffffffffffffffff169050919050565b6000610ae282610f27565b90508073ffffffffffffffffffffffffffffffffffffffff168373ffffffffffffffffffffffffffffffffffffffff161415610b53576040517f08c379a0000000000000000000000000000000000000000000000000000000008152600401610b4a9061443f565b60405180910390fd5b8073ffffffffffffffffffffffffffffffffffffffff16610b72611de4565b73ffffffffffffffffffffffffffffffffffffffff161480610ba15750610ba081610b9b611de4565b611b1b565b5b610be0576040517f08c379a0000000000000000000000000000000000000000000000000000000008152600401610bd7906142df565b60405180910390fd5b610bea8383611dec565b505050565b600d6020528060005260406000206000915090505481565b60008073ffffffffffffffffffffffffffffffffffffffff16600a600084815260200190815260200160002060000160009054906101000a900473ffffffffffffffffffffffffffffffffffffffff1673ffffffffffffffffffffffffffffffffffffffff161415610c7c5760009050610c81565b600190505b919050565b6000600e60008473ffffffffffffffffffffffffffffffffffffffff1673ffffffffffffffffffffffffffffffffffffffff168152602001908152602001600020600083815260200190815260200160002054905092915050565b610cf2610cec611de4565b82611ea5565b610d31576040517f08c379a0000000000000000000000000000000000000000000000000000000008152600401610d289061445f565b60405180910390fd5b610d3c838383611f83565b505050565b610d49611de4565b73ffffffffffffffffffffffffffffffffffffffff16610d6761163c565b73ffffffffffffffffffffffffffffffffffffffff1614610dbd576040517f08c379a0000000000000000000000000000000000000000000000000000000008152600401610db4906143bf565b60405180910390fd5b3373ffffffffffffffffffffffffffffffffffffffff166108fc479081150290604051600060405180830381858888f19350505050158015610e03573d6000803e3d6000fd5b50565b610e21838383604051806020016040528060008152506118ca565b505050565b610e37610e31611de4565b82611ea5565b610e76576040517f08c379a0000000000000000000000000000000000000000000000000000000008152600401610e6d9061441f565b60405180910390fd5b610e7f816121df565b50565b600c602052816000526040600020602052806000526040600020600091509150505481565b600e602052816000526040600020602052806000526040600020600091509150505481565b6000600c60008473ffffffffffffffffffffffffffffffffffffffff1673ffffffffffffffffffffffffffffffffffffffff168152602001908152602001600020600083815260200190815260200160002054905092915050565b6000806002600084815260200190815260200160002060009054906101000a900473ffffffffffffffffffffffffffffffffffffffff169050600073ffffffffffffffffffffffffffffffffffffffff168173ffffffffffffffffffffffffffffffffffffffff161415610fd0576040517f08c379a0000000000000000000000000000000000000000000000000000000008152600401610fc79061431f565b60405180910390fd5b80915050919050565b60008073ffffffffffffffffffffffffffffffffffffffff168273ffffffffffffffffffffffffffffffffffffffff16141561104a576040517f08c379a0000000000000000000000000000000000000000000000000000000008152600401611041906142ff565b60405180910390fd5b600360008373ffffffffffffffffffffffffffffffffffffffff1673ffffffffffffffffffffffffffffffffffffffff168152602001908152602001600020549050919050565b611099611de4565b73ffffffffffffffffffffffffffffffffffffffff166110b761163c565b73ffffffffffffffffffffffffffffffffffffffff161461110d576040517f08c379a0000000000000000000000000000000000000000000000000000000008152600401611104906143bf565b60405180910390fd5b6111176000612232565b565b6002600854141561115f576040517f08c379a00000000000000000000000000000000000000000000000000000000081526004016111569061449f565b60405180910390fd5b60026008819055506111723385856109c1565b156111b2576040517f08c379a00000000000000000000000000000000000000000000000000000000081526004016111a9906142bf565b60405180910390fd5b600f5434146111f6576040517f08c379a00000000000000000000000000000000000000000000000000000000081526004016111ed9061429f565b60405180910390fd5b611202848484846122f8565b600160088190555050505050565b60026008541415611256576040517f08c379a000000000000000000000000000000000000000000000000000000000815260040161124d9061449f565b60405180910390fd5b600260088190555061126781610c07565b6112a6576040517f08c379a000000000000000000000000000000000000000000000000000000000815260040161129d906141ff565b60405180910390fd5b6000600a60008381526020019081526020016000209050600015158160040160009054906101000a900460ff16151514611315576040517f08c379a000000000000000000000000000000000000000000000000000000000815260040161130c9061425f565b60405180910390fd5b60018160040160006101000a81548160ff0219169083151502179055504281600601819055506113453383612570565b8060040160019054906101000a900460ff1615611418576114168160000160009054906101000a900473ffffffffffffffffffffffffffffffffffffffff16826003018054611393906147ad565b80601f01602080910402602001604051908101604052809291908181526020018280546113bf906147ad565b801561140c5780601f106113e15761010080835404028352916020019161140c565b820191906000526020600020905b8154815290600101906020018083116113ef57829003601f168201915b5050505050612822565b505b6114d28160010160009054906101000a900473ffffffffffffffffffffffffffffffffffffffff1682600301805461144f906147ad565b80601f016020809104026020016040519081016040528092919081815260200182805461147b906147ad565b80156114c85780601f1061149d576101008083540402835291602001916114c8565b820191906000526020600020905b8154815290600101906020018083116114ab57829003601f168201915b5050505050612822565b5050600160088190555050565b60026008541415611525576040517f08c379a000000000000000000000000000000000000000000000000000000000815260040161151c9061449f565b60405180910390fd5b600260088190555060005b845181101561162d576000858281518110611574577f4e487b7100000000000000000000000000000000000000000000000000000000600052603260045260246000fd5b602002602001015190506115893382876109c1565b156115c9576040517f08c379a00000000000000000000000000000000000000000000000000000000081526004016115c0906142bf565b60405180910390fd5b600f54341461160d576040517f08c379a00000000000000000000000000000000000000000000000000000000081526004016116049061429f565b60405180910390fd5b611619818686866122f8565b50808061162590614810565b915050611530565b50600160088190555050505050565b6000600760009054906101000a900473ffffffffffffffffffffffffffffffffffffffff16905090565b606060018054611675906147ad565b80601f01602080910402602001604051908101604052809291908181526020018280546116a1906147ad565b80156116ee5780601f106116c3576101008083540402835291602001916116ee565b820191906000526020600020905b8154815290600101906020018083116116d157829003601f168201915b5050505050905090565b6002600854141561173e576040517f08c379a00000000000000000000000000000000000000000000000000000000081526004016117359061449f565b60405180910390fd5b60026008819055507fae1bcbdf2de9df4313d4932816e3638b4de0908a210e6fba47ea7d529034ca3e81336040516117779291906144da565b60405180910390a1600160088190555050565b600a6020528060005260406000206000915090508060000160009054906101000a900473ffffffffffffffffffffffffffffffffffffffff16908060010160009054906101000a900473ffffffffffffffffffffffffffffffffffffffff16908060020154908060030180546117ff906147ad565b80601f016020809104026020016040519081016040528092919081815260200182805461182b906147ad565b80156118785780601f1061184d57610100808354040283529160200191611878565b820191906000526020600020905b81548152906001019060200180831161185b57829003601f168201915b5050505050908060040160009054906101000a900460ff16908060040160019054906101000a900460ff16908060050154908060060154905088565b6118c66118bf611de4565b838361289d565b5050565b6118db6118d5611de4565b83611ea5565b61191a576040517f08c379a00000000000000000000000000000000000000000000000000000000081526004016119119061445f565b60405180910390fd5b61192684848484612a0a565b50505050565b606061193782611d78565b611976576040517f08c379a000000000000000000000000000000000000000000000000000000000815260040161196d9061437f565b60405180910390fd5b6000600660008481526020019081526020016000208054611996906147ad565b80601f01602080910402602001604051908101604052809291908181526020018280546119c2906147ad565b8015611a0f5780601f106119e457610100808354040283529160200191611a0f565b820191906000526020600020905b8154815290600101906020018083116119f257829003601f168201915b505050505090506000611a20612a66565b9050600081511415611a36578192505050611a79565b600082511115611a6b578082604051602001611a53929190613fec565b60405160208183030381529060405292505050611a79565b611a7484612a7d565b925050505b919050565b6060600b60008373ffffffffffffffffffffffffffffffffffffffff1673ffffffffffffffffffffffffffffffffffffffff168152602001908152602001600020805480602002602001604051908101604052809291908181526020018280548015611b0957602002820191906000526020600020905b815481526020019060010190808311611af5575b50505050509050919050565b600f5481565b6000600560008473ffffffffffffffffffffffffffffffffffffffff1673ffffffffffffffffffffffffffffffffffffffff16815260200190815260200160002060008373ffffffffffffffffffffffffffffffffffffffff1673ffffffffffffffffffffffffffffffffffffffff16815260200190815260200160002060009054906101000a900460ff16905092915050565b600b6020528160005260406000208181548110611bcb57600080fd5b90600052602060002001600091509150505481565b611be8611de4565b73ffffffffffffffffffffffffffffffffffffffff16611c0661163c565b73ffffffffffffffffffffffffffffffffffffffff1614611c5c576040517f08c379a0000000000000000000000000000000000000000000000000000000008152600401611c53906143bf565b60405180910390fd5b600073ffffffffffffffffffffffffffffffffffffffff168173ffffffffffffffffffffffffffffffffffffffff161415611ccc576040517f08c379a0000000000000000000000000000000000000000000000000000000008152600401611cc3906141bf565b60405180910390fd5b611cd581612232565b50565b60007f01ffc9a7000000000000000000000000000000000000000000000000000000007bffffffffffffffffffffffffffffffffffffffffffffffffffffffff1916827bffffffffffffffffffffffffffffffffffffffffffffffffffffffff1916149050919050565b6000838383604051602001611d5993929190613f98565b6040516020818303038152906040528051906020012090509392505050565b60008073ffffffffffffffffffffffffffffffffffffffff166002600084815260200190815260200160002060009054906101000a900473ffffffffffffffffffffffffffffffffffffffff1673ffffffffffffffffffffffffffffffffffffffff1614159050919050565b600033905090565b816004600083815260200190815260200160002060006101000a81548173ffffffffffffffffffffffffffffffffffffffff021916908373ffffffffffffffffffffffffffffffffffffffff160217905550808273ffffffffffffffffffffffffffffffffffffffff16611e5f83610f27565b73ffffffffffffffffffffffffffffffffffffffff167f8c5be1e5ebec7d5bd14f71427d1e84f3dd0314c0f7b2291e5b200ac8c7c3b92560405160405180910390a45050565b6000611eb082611d78565b611eef576040517f08c379a0000000000000000000000000000000000000000000000000000000008152600401611ee69061427f565b60405180910390fd5b6000611efa83610f27565b90508073ffffffffffffffffffffffffffffffffffffffff168473ffffffffffffffffffffffffffffffffffffffff161480611f6957508373ffffffffffffffffffffffffffffffffffffffff16611f5184610a52565b73ffffffffffffffffffffffffffffffffffffffff16145b80611f7a5750611f798185611b1b565b5b91505092915050565b8273ffffffffffffffffffffffffffffffffffffffff16611fa382610f27565b73ffffffffffffffffffffffffffffffffffffffff1614611ff9576040517f08c379a0000000000000000000000000000000000000000000000000000000008152600401611ff0906143df565b60405180910390fd5b600073ffffffffffffffffffffffffffffffffffffffff168273ffffffffffffffffffffffffffffffffffffffff161415612069576040517f08c379a00000000000000000000000000000000000000000000000000000000081526004016120609061421f565b60405180910390fd5b612074838383612b24565b61207f600082611dec565b6001600360008573ffffffffffffffffffffffffffffffffffffffff1673ffffffffffffffffffffffffffffffffffffffff16815260200190815260200160002060008282546120cf91906146b9565b925050819055506001600360008473ffffffffffffffffffffffffffffffffffffffff1673ffffffffffffffffffffffffffffffffffffffff16815260200190815260200160002060008282546121269190614632565b92505081905550816002600083815260200190815260200160002060006101000a81548173ffffffffffffffffffffffffffffffffffffffff021916908373ffffffffffffffffffffffffffffffffffffffff160217905550808273ffffffffffffffffffffffffffffffffffffffff168473ffffffffffffffffffffffffffffffffffffffff167fddf252ad1be2c89b69c2b068fc378daa952ba7f163c4a11628f55a4df523b3ef60405160405180910390a4505050565b6121e881612be9565b6000600660008381526020019081526020016000208054612208906147ad565b90501461222f5760066000828152602001908152602001600020600061222e919061343f565b5b50565b6000600760009054906101000a900473ffffffffffffffffffffffffffffffffffffffff16905081600760006101000a81548173ffffffffffffffffffffffffffffffffffffffff021916908373ffffffffffffffffffffffffffffffffffffffff1602179055508173ffffffffffffffffffffffffffffffffffffffff168173ffffffffffffffffffffffffffffffffffffffff167f8be0079c531659141344cd1fd0a4f28419497f9722a3daafe3b4186f6b6457e060405160405180910390a35050565b6000612305338686611d42565b90506040518061010001604052803373ffffffffffffffffffffffffffffffffffffffff1681526020018673ffffffffffffffffffffffffffffffffffffffff16815260200143815260200183815260200160001515815260200184151581526020014281526020016000815250600a600083815260200190815260200160002060008201518160000160006101000a81548173ffffffffffffffffffffffffffffffffffffffff021916908373ffffffffffffffffffffffffffffffffffffffff16021790555060208201518160010160006101000a81548173ffffffffffffffffffffffffffffffffffffffff021916908373ffffffffffffffffffffffffffffffffffffffff16021790555060408201518160020155606082015181600301908051906020019061243a92919061347f565b5060808201518160040160006101000a81548160ff02191690831515021790555060a08201518160040160016101000a81548160ff02191690831515021790555060c0820151816005015560e08201518160060155905050600b60003373ffffffffffffffffffffffffffffffffffffffff1673ffffffffffffffffffffffffffffffffffffffff1681526020019081526020016000208190806001815401808255809150506001900390600052602060002001600090919091909150556125028582612cfa565b8473ffffffffffffffffffffffffffffffffffffffff163373ffffffffffffffffffffffffffffffffffffffff167fc07e9c053c6fe0cb662c7a0ff5a607e0fac86213d7d37d11d4782498624851928387604051612561929190614154565b60405180910390a35050505050565b60006001600d60008573ffffffffffffffffffffffffffffffffffffffff1673ffffffffffffffffffffffffffffffffffffffff168152602001908152602001600020546125be91906146b9565b90506000600e60008573ffffffffffffffffffffffffffffffffffffffff1673ffffffffffffffffffffffffffffffffffffffff168152602001908152602001600020600084815260200190815260200160002054905081811461271d576000600c60008673ffffffffffffffffffffffffffffffffffffffff1673ffffffffffffffffffffffffffffffffffffffff168152602001908152602001600020600084815260200190815260200160002054905080600c60008773ffffffffffffffffffffffffffffffffffffffff1673ffffffffffffffffffffffffffffffffffffffff16815260200190815260200160002060008481526020019081526020016000208190555081600e60008773ffffffffffffffffffffffffffffffffffffffff1673ffffffffffffffffffffffffffffffffffffffff168152602001908152602001600020600083815260200190815260200160002081905550505b600e60008573ffffffffffffffffffffffffffffffffffffffff1673ffffffffffffffffffffffffffffffffffffffff168152602001908152602001600020600084815260200190815260200160002060009055600c60008573ffffffffffffffffffffffffffffffffffffffff1673ffffffffffffffffffffffffffffffffffffffff1681526020019081526020016000206000838152602001908152602001600020600090556001600d60008673ffffffffffffffffffffffffffffffffffffffff1673ffffffffffffffffffffffffffffffffffffffff168152602001908152602001600020600082825461281591906146b9565b9250508190555050505050565b600061282e6009612e7d565b600061283a6009612e93565b90506128468482612ea1565b612850818461306f565b8260405161285e9190613fd5565b6040518091039020817fac60a09674f049f6a63c51f373fb7febaf74a582f3a9f82cd39275be73988d2160405160405180910390a38091505092915050565b8173ffffffffffffffffffffffffffffffffffffffff168373ffffffffffffffffffffffffffffffffffffffff16141561290c576040517f08c379a00000000000000000000000000000000000000000000000000000000081526004016129039061423f565b60405180910390fd5b80600560008573ffffffffffffffffffffffffffffffffffffffff1673ffffffffffffffffffffffffffffffffffffffff16815260200190815260200160002060008473ffffffffffffffffffffffffffffffffffffffff1673ffffffffffffffffffffffffffffffffffffffff16815260200190815260200160002060006101000a81548160ff0219169083151502179055508173ffffffffffffffffffffffffffffffffffffffff168373ffffffffffffffffffffffffffffffffffffffff167f17307eab39ab6107e8899845ad3d59bd9653f200f220920489ca2b5937696c31836040516129fd919061411e565b60405180910390a3505050565b612a15848484611f83565b612a21848484846130e3565b612a60576040517f08c379a0000000000000000000000000000000000000000000000000000000008152600401612a579061419f565b60405180910390fd5b50505050565b606060405180602001604052806000815250905090565b6060612a8882611d78565b612ac7576040517f08c379a0000000000000000000000000000000000000000000000000000000008152600401612abe906143ff565b60405180910390fd5b6000612ad1612a66565b90506000815111612af15760405180602001604052806000815250612b1c565b80612afb8461327a565b604051602001612b0c929190613fec565b6040516020818303038152906040525b915050919050565b600073ffffffffffffffffffffffffffffffffffffffff168273ffffffffffffffffffffffffffffffffffffffff161415612b6957612b64838383613427565b612be4565b600073ffffffffffffffffffffffffffffffffffffffff168373ffffffffffffffffffffffffffffffffffffffff1614612bd8576040517f08c379a0000000000000000000000000000000000000000000000000000000008152600401612bcf9061447f565b60405180910390fd5b612be3838383613427565b5b505050565b6000612bf482610f27565b9050612c0281600084612b24565b612c0d600083611dec565b6001600360008373ffffffffffffffffffffffffffffffffffffffff1673ffffffffffffffffffffffffffffffffffffffff1681526020019081526020016000206000828254612c5d91906146b9565b925050819055506002600083815260200190815260200160002060006101000a81549073ffffffffffffffffffffffffffffffffffffffff021916905581600073ffffffffffffffffffffffffffffffffffffffff168273ffffffffffffffffffffffffffffffffffffffff167fddf252ad1be2c89b69c2b068fc378daa952ba7f163c4a11628f55a4df523b3ef60405160405180910390a45050565b80600c60008473ffffffffffffffffffffffffffffffffffffffff1673ffffffffffffffffffffffffffffffffffffffff1681526020019081526020016000206000600d60008673ffffffffffffffffffffffffffffffffffffffff1673ffffffffffffffffffffffffffffffffffffffff16815260200190815260200160002054815260200190815260200160002081905550600d60008373ffffffffffffffffffffffffffffffffffffffff1673ffffffffffffffffffffffffffffffffffffffff16815260200190815260200160002054600e60008473ffffffffffffffffffffffffffffffffffffffff1673ffffffffffffffffffffffffffffffffffffffff1681526020019081526020016000206000838152602001908152602001600020819055506001600d60008473ffffffffffffffffffffffffffffffffffffffff1673ffffffffffffffffffffffffffffffffffffffff1681526020019081526020016000206000828254612e729190614632565b925050819055505050565b6001816000016000828254019250508190555050565b600081600001549050919050565b600073ffffffffffffffffffffffffffffffffffffffff168273ffffffffffffffffffffffffffffffffffffffff161415612f11576040517f08c379a0000000000000000000000000000000000000000000000000000000008152600401612f089061435f565b60405180910390fd5b612f1a81611d78565b15612f5a576040517f08c379a0000000000000000000000000000000000000000000000000000000008152600401612f51906141df565b60405180910390fd5b612f6660008383612b24565b6001600360008473ffffffffffffffffffffffffffffffffffffffff1673ffffffffffffffffffffffffffffffffffffffff1681526020019081526020016000206000828254612fb69190614632565b92505081905550816002600083815260200190815260200160002060006101000a81548173ffffffffffffffffffffffffffffffffffffffff021916908373ffffffffffffffffffffffffffffffffffffffff160217905550808273ffffffffffffffffffffffffffffffffffffffff16600073ffffffffffffffffffffffffffffffffffffffff167fddf252ad1be2c89b69c2b068fc378daa952ba7f163c4a11628f55a4df523b3ef60405160405180910390a45050565b61307882611d78565b6130b7576040517f08c379a00000000000000000000000000000000000000000000000000000000081526004016130ae9061433f565b60405180910390fd5b806006600084815260200190815260200160002090805190602001906130de92919061347f565b505050565b60006131048473ffffffffffffffffffffffffffffffffffffffff1661342c565b1561326d578373ffffffffffffffffffffffffffffffffffffffff1663150b7a0261312d611de4565b8786866040518563ffffffff1660e01b815260040161314f949392919061402b565b602060405180830381600087803b15801561316957600080fd5b505af192505050801561319a57506040513d601f19601f820116820180604052508101906131979190613a49565b60015b61321d573d80600081146131ca576040519150601f19603f3d011682016040523d82523d6000602084013e6131cf565b606091505b50600081511415613215576040517f08c379a000000000000000000000000000000000000000000000000000000000815260040161320c9061419f565b60405180910390fd5b805181602001fd5b63150b7a0260e01b7bffffffffffffffffffffffffffffffffffffffffffffffffffffffff1916817bffffffffffffffffffffffffffffffffffffffffffffffffffffffff191614915050613272565b600190505b949350505050565b606060008214156132c2576040518060400160405280600181526020017f30000000000000000000000000000000000000000000000000000000000000008152509050613422565b600082905060005b600082146132f45780806132dd90614810565b915050600a826132ed9190614688565b91506132ca565b60008167ffffffffffffffff811115613336577f4e487b7100000000000000000000000000000000000000000000000000000000600052604160045260246000fd5b6040519080825280601f01601f1916602001820160405280156133685781602001600182028036833780820191505090505b5090505b6000851461341b5760018261338191906146b9565b9150600a856133909190614887565b603061339c9190614632565b60f81b8183815181106133d8577f4e487b7100000000000000000000000000000000000000000000000000000000600052603260045260246000fd5b60200101907effffffffffffffffffffffffffffffffffffffffffffffffffffffffffffff1916908160001a905350600a856134149190614688565b945061336c565b8093505050505b919050565b505050565b600080823b905060008111915050919050565b50805461344b906147ad565b6000825580601f1061345d575061347c565b601f01602090049060005260206000209081019061347b9190613505565b5b50565b82805461348b906147ad565b90600052602060002090601f0160209004810192826134ad57600085556134f4565b82601f106134c657805160ff19168380011785556134f4565b828001600101855582156134f4579182015b828111156134f35782518255916020019190600101906134d8565b5b5090506135019190613505565b5090565b5b8082111561351e576000816000905550600101613506565b5090565b600061353561353084614528565b614503565b9050808382526020820190508285602086028201111561355457600080fd5b60005b85811015613584578161356a888261360a565b845260208401935060208301925050600181019050613557565b5050509392505050565b60006135a161359c84614554565b614503565b9050828152602081018484840111156135b957600080fd5b6135c484828561476b565b509392505050565b60006135df6135da84614585565b614503565b9050828152602081018484840111156135f757600080fd5b61360284828561476b565b509392505050565b60008135905061361981614fa7565b92915050565b600082601f83011261363057600080fd5b8135613640848260208601613522565b91505092915050565b60008135905061365881614fbe565b92915050565b60008135905061366d81614fd5565b92915050565b60008135905061368281614fec565b92915050565b60008151905061369781614fec565b92915050565b600082601f8301126136ae57600080fd5b81356136be84826020860161358e565b91505092915050565b600082601f8301126136d857600080fd5b81356136e88482602086016135cc565b91505092915050565b60008135905061370081615003565b92915050565b60006020828403121561371857600080fd5b60006137268482850161360a565b91505092915050565b6000806040838503121561374257600080fd5b60006137508582860161360a565b92505060206137618582860161360a565b9150509250929050565b60008060006060848603121561378057600080fd5b600061378e8682870161360a565b935050602061379f8682870161360a565b92505060406137b0868287016136f1565b9150509250925092565b600080600080608085870312156137d057600080fd5b60006137de8782880161360a565b94505060206137ef8782880161360a565b9350506040613800878288016136f1565b925050606085013567ffffffffffffffff81111561381d57600080fd5b6138298782880161369d565b91505092959194509250565b6000806040838503121561384857600080fd5b60006138568582860161360a565b925050602061386785828601613649565b9150509250929050565b6000806040838503121561388457600080fd5b60006138928582860161360a565b92505060206138a38582860161365e565b9150509250929050565b600080604083850312156138c057600080fd5b60006138ce8582860161360a565b92505060206138df858286016136f1565b9150509250929050565b600080600080608085870312156138ff57600080fd5b600061390d8782880161360a565b945050602061391e878288016136f1565b935050604061392f87828801613649565b925050606085013567ffffffffffffffff81111561394c57600080fd5b613958878288016136c7565b91505092959194509250565b6000806000806080858703121561397a57600080fd5b600085013567ffffffffffffffff81111561399457600080fd5b6139a08782880161361f565b94505060206139b1878288016136f1565b93505060406139c287828801613649565b925050606085013567ffffffffffffffff8111156139df57600080fd5b6139eb878288016136c7565b91505092959194509250565b600060208284031215613a0957600080fd5b6000613a178482850161365e565b91505092915050565b600060208284031215613a3257600080fd5b6000613a4084828501613673565b91505092915050565b600060208284031215613a5b57600080fd5b6000613a6984828501613688565b91505092915050565b600060208284031215613a8457600080fd5b6000613a92848285016136f1565b91505092915050565b6000613aa78383613b46565b60208301905092915050565b613abc816146ed565b82525050565b613ad3613ace826146ed565b614859565b82525050565b6000613ae4826145c6565b613aee81856145f4565b9350613af9836145b6565b8060005b83811015613b2a578151613b118882613a9b565b9750613b1c836145e7565b925050600181019050613afd565b5085935050505092915050565b613b40816146ff565b82525050565b613b4f8161470b565b82525050565b613b5e8161470b565b82525050565b6000613b6f826145d1565b613b798185614605565b9350613b8981856020860161477a565b613b9281614974565b840191505092915050565b6000613ba8826145dc565b613bb28185614616565b9350613bc281856020860161477a565b613bcb81614974565b840191505092915050565b6000613be1826145dc565b613beb8185614627565b9350613bfb81856020860161477a565b80840191505092915050565b6000613c14603283614616565b9150613c1f82614992565b604082019050919050565b6000613c37602683614616565b9150613c42826149e1565b604082019050919050565b6000613c5a601c83614616565b9150613c6582614a30565b602082019050919050565b6000613c7d601383614616565b9150613c8882614a59565b602082019050919050565b6000613ca0602483614616565b9150613cab82614a82565b604082019050919050565b6000613cc3601983614616565b9150613cce82614ad1565b602082019050919050565b6000613ce6601683614616565b9150613cf182614afa565b602082019050919050565b6000613d09602c83614616565b9150613d1482614b23565b604082019050919050565b6000613d2c600f83614616565b9150613d3782614b72565b602082019050919050565b6000613d4f601883614616565b9150613d5a82614b9b565b602082019050919050565b6000613d72603883614616565b9150613d7d82614bc4565b604082019050919050565b6000613d95602a83614616565b9150613da082614c13565b604082019050919050565b6000613db8602983614616565b9150613dc382614c62565b604082019050919050565b6000613ddb602e83614616565b9150613de682614cb1565b604082019050919050565b6000613dfe602083614616565b9150613e0982614d00565b602082019050919050565b6000613e21603183614616565b9150613e2c82614d29565b604082019050919050565b6000613e44602c83614616565b9150613e4f82614d78565b604082019050919050565b6000613e67602083614616565b9150613e7282614dc7565b602082019050919050565b6000613e8a602983614616565b9150613e9582614df0565b604082019050919050565b6000613ead602f83614616565b9150613eb882614e3f565b604082019050919050565b6000613ed0602083614616565b9150613edb82614e8e565b602082019050919050565b6000613ef3602183614616565b9150613efe82614eb7565b604082019050919050565b6000613f16603183614616565b9150613f2182614f06565b604082019050919050565b6000613f39601f83614616565b9150613f4482614f55565b602082019050919050565b6000613f5c601f83614616565b9150613f6782614f7e565b602082019050919050565b613f7b81614761565b82525050565b613f92613f8d82614761565b61487d565b82525050565b6000613fa48286613ac2565b601482019150613fb48285613ac2565b601482019150613fc48284613f81565b602082019150819050949350505050565b6000613fe18284613bd6565b915081905092915050565b6000613ff88285613bd6565b91506140048284613bd6565b91508190509392505050565b60006020820190506140256000830184613ab3565b92915050565b60006080820190506140406000830187613ab3565b61404d6020830186613ab3565b61405a6040830185613f72565b818103606083015261406c8184613b64565b905095945050505050565b60006101008201905061408d600083018b613ab3565b61409a602083018a613ab3565b6140a76040830189613f72565b81810360608301526140b98188613b9d565b90506140c86080830187613b37565b6140d560a0830186613b37565b6140e260c0830185613f72565b6140ef60e0830184613f72565b9998505050505050505050565b600060208201905081810360008301526141168184613ad9565b905092915050565b60006020820190506141336000830184613b37565b92915050565b600060208201905061414e6000830184613b55565b92915050565b60006040820190506141696000830185613b55565b6141766020830184613f72565b9392505050565b600060208201905081810360008301526141978184613b9d565b905092915050565b600060208201905081810360008301526141b881613c07565b9050919050565b600060208201905081810360008301526141d881613c2a565b9050919050565b600060208201905081810360008301526141f881613c4d565b9050919050565b6000602082019050818103600083015261421881613c70565b9050919050565b6000602082019050818103600083015261423881613c93565b9050919050565b6000602082019050818103600083015261425881613cb6565b9050919050565b6000602082019050818103600083015261427881613cd9565b9050919050565b6000602082019050818103600083015261429881613cfc565b9050919050565b600060208201905081810360008301526142b881613d1f565b9050919050565b600060208201905081810360008301526142d881613d42565b9050919050565b600060208201905081810360008301526142f881613d65565b9050919050565b6000602082019050818103600083015261431881613d88565b9050919050565b6000602082019050818103600083015261433881613dab565b9050919050565b6000602082019050818103600083015261435881613dce565b9050919050565b6000602082019050818103600083015261437881613df1565b9050919050565b6000602082019050818103600083015261439881613e14565b9050919050565b600060208201905081810360008301526143b881613e37565b9050919050565b600060208201905081810360008301526143d881613e5a565b9050919050565b600060208201905081810360008301526143f881613e7d565b9050919050565b6000602082019050818103600083015261441881613ea0565b9050919050565b6000602082019050818103600083015261443881613ec3565b9050919050565b6000602082019050818103600083015261445881613ee6565b9050919050565b6000602082019050818103600083015261447881613f09565b9050919050565b6000602082019050818103600083015261449881613f2c565b9050919050565b600060208201905081810360008301526144b881613f4f565b9050919050565b60006020820190506144d46000830184613f72565b92915050565b60006040820190506144ef6000830185613f72565b6144fc6020830184613ab3565b9392505050565b600061450d61451e565b905061451982826147df565b919050565b6000604051905090565b600067ffffffffffffffff82111561454357614542614945565b5b602082029050602081019050919050565b600067ffffffffffffffff82111561456f5761456e614945565b5b61457882614974565b9050602081019050919050565b600067ffffffffffffffff8211156145a05761459f614945565b5b6145a982614974565b9050602081019050919050565b6000819050602082019050919050565b600081519050919050565b600081519050919050565b600081519050919050565b6000602082019050919050565b600082825260208201905092915050565b600082825260208201905092915050565b600082825260208201905092915050565b600081905092915050565b600061463d82614761565b915061464883614761565b9250827fffffffffffffffffffffffffffffffffffffffffffffffffffffffffffffffff0382111561467d5761467c6148b8565b5b828201905092915050565b600061469382614761565b915061469e83614761565b9250826146ae576146ad6148e7565b5b828204905092915050565b60006146c482614761565b91506146cf83614761565b9250828210156146e2576146e16148b8565b5b828203905092915050565b60006146f882614741565b9050919050565b60008115159050919050565b6000819050919050565b60007fffffffff0000000000000000000000000000000000000000000000000000000082169050919050565b600073ffffffffffffffffffffffffffffffffffffffff82169050919050565b6000819050919050565b82818337600083830152505050565b60005b8381101561479857808201518184015260208101905061477d565b838111156147a7576000848401525b50505050565b600060028204905060018216806147c557607f821691505b602082108114156147d9576147d8614916565b5b50919050565b6147e882614974565b810181811067ffffffffffffffff8211171561480757614806614945565b5b80604052505050565b600061481b82614761565b91507fffffffffffffffffffffffffffffffffffffffffffffffffffffffffffffffff82141561484e5761484d6148b8565b5b600182019050919050565b60006148648261486b565b9050919050565b600061487682614985565b9050919050565b6000819050919050565b600061489282614761565b915061489d83614761565b9250826148ad576148ac6148e7565b5b828206905092915050565b7f4e487b7100000000000000000000000000000000000000000000000000000000600052601160045260246000fd5b7f4e487b7100000000000000000000000000000000000000000000000000000000600052601260045260246000fd5b7f4e487b7100000000000000000000000000000000000000000000000000000000600052602260045260246000fd5b7f4e487b7100000000000000000000000000000000000000000000000000000000600052604160045260246000fd5b6000601f19601f8301169050919050565b60008160601b9050919050565b7f4552433732313a207472616e7366657220746f206e6f6e20455243373231526560008201527f63656976657220696d706c656d656e7465720000000000000000000000000000602082015250565b7f4f776e61626c653a206e6577206f776e657220697320746865207a65726f206160008201527f6464726573730000000000000000000000000000000000000000000000000000602082015250565b7f4552433732313a20746f6b656e20616c7265616479206d696e74656400000000600082015250565b7f70726f706f7365206e6f74206578697374732e00000000000000000000000000600082015250565b7f4552433732313a207472616e7366657220746f20746865207a65726f2061646460008201527f7265737300000000000000000000000000000000000000000000000000000000602082015250565b7f4552433732313a20617070726f766520746f2063616c6c657200000000000000600082015250565b7f416c7265616479206163636570742070726f706f736500000000000000000000600082015250565b7f4552433732313a206f70657261746f7220717565727920666f72206e6f6e657860008201527f697374656e7420746f6b656e0000000000000000000000000000000000000000602082015250565b7f506c6561736520706179206665652e0000000000000000000000000000000000600082015250565b7f416e206f6666657220616c7265616479206578697374732e0000000000000000600082015250565b7f4552433732313a20617070726f76652063616c6c6572206973206e6f74206f7760008201527f6e6572206e6f7220617070726f76656420666f7220616c6c0000000000000000602082015250565b7f4552433732313a2062616c616e636520717565727920666f7220746865207a6560008201527f726f206164647265737300000000000000000000000000000000000000000000602082015250565b7f4552433732313a206f776e657220717565727920666f72206e6f6e657869737460008201527f656e7420746f6b656e0000000000000000000000000000000000000000000000602082015250565b7f45524337323155524953746f726167653a2055524920736574206f66206e6f6e60008201527f6578697374656e7420746f6b656e000000000000000000000000000000000000602082015250565b7f4552433732313a206d696e7420746f20746865207a65726f2061646472657373600082015250565b7f45524337323155524953746f726167653a2055524920717565727920666f722060008201527f6e6f6e6578697374656e7420746f6b656e000000000000000000000000000000602082015250565b7f4552433732313a20617070726f76656420717565727920666f72206e6f6e657860008201527f697374656e7420746f6b656e0000000000000000000000000000000000000000602082015250565b7f4f776e61626c653a2063616c6c6572206973206e6f7420746865206f776e6572600082015250565b7f4552433732313a207472616e73666572206f6620746f6b656e2074686174206960008201527f73206e6f74206f776e0000000000000000000000000000000000000000000000602082015250565b7f4552433732314d657461646174613a2055524920717565727920666f72206e6f60008201527f6e6578697374656e7420746f6b656e0000000000000000000000000000000000602082015250565b7f63616c6c6572206973206e6f74206f776e6572206e6f7220617070726f766564600082015250565b7f4552433732313a20617070726f76616c20746f2063757272656e74206f776e6560008201527f7200000000000000000000000000000000000000000000000000000000000000602082015250565b7f4552433732313a207472616e736665722063616c6c6572206973206e6f74206f60008201527f776e6572206e6f7220617070726f766564000000000000000000000000000000602082015250565b7f43616e6e6f74207472616e7366657220736f756c20626f6e6420746f6b656e00600082015250565b7f5265656e7472616e637947756172643a207265656e7472616e742063616c6c00600082015250565b614fb0816146ed565b8114614fbb57600080fd5b50565b614fc7816146ff565b8114614fd257600080fd5b50565b614fde8161470b565b8114614fe957600080fd5b50565b614ff581614715565b811461500057600080fd5b50565b61500c81614761565b811461501757600080fd5b5056fea26469706673582212209e232a3af59c457e5d33618d8f5fb69307128e491510a8063629f743af6f022b64736f6c63430008040033",
  "linkReferences": {},
  "deployedLinkReferences": {}
}