{
  "_format": "hh-sol-artifact-1",
  "contractName": "SoulToken",
  "sourceName": "contracts/SoulToken.sol",
  "abi": [
    {
      "inputs": [
        {
          "internalType": "uint256",
          "name": "_fee",
          "type": "uint256"
        }
      ],
      "stateMutability": "nonpayable",
      "type": "constructor"
    },
    {
      "anonymous": false,
      "inputs": [
        {
          "indexed": true,
          "internalType": "address",
          "name": "owner",
          "type": "address"
        },
        {
          "indexed": true,
          "internalType": "address",
          "name": "approved",
          "type": "address"
        },
        {
          "indexed": true,
          "internalType": "uint256",
          "name": "tokenId",
          "type": "uint256"
        }
      ],
      "name": "Approval",
      "type": "event"
    },
    {
      "anonymous": false,
      "inputs": [
        {
          "indexed": true,
          "internalType": "address",
          "name": "owner",
          "type": "address"
        },
        {
          "indexed": true,
          "internalType": "address",
          "name": "operator",
          "type": "address"
        },
        {
          "indexed": false,
          "internalType": "bool",
          "name": "approved",
          "type": "bool"
        }
      ],
      "name": "ApprovalForAll",
      "type": "event"
    },
    {
      "anonymous": false,
      "inputs": [
        {
          "indexed": true,
          "internalType": "address",
          "name": "from",
          "type": "address"
        },
        {
          "indexed": true,
          "internalType": "address",
          "name": "to",
          "type": "address"
        },
        {
          "indexed": false,
          "internalType": "bytes32",
          "name": "proposeId",
          "type": "bytes32"
        },
        {
          "indexed": false,
          "internalType": "uint256",
          "name": "eventId",
          "type": "uint256"
        }
      ],
      "name": "MakePropose",
      "type": "event"
    },
    {
      "anonymous": false,
      "inputs": [
        {
          "indexed": true,
          "internalType": "address",
          "name": "previousOwner",
          "type": "address"
        },
        {
          "indexed": true,
          "internalType": "address",
          "name": "newOwner",
          "type": "address"
        }
      ],
      "name": "OwnershipTransferred",
      "type": "event"
    },
    {
      "anonymous": false,
      "inputs": [
        {
          "indexed": true,
          "internalType": "address",
          "name": "from",
          "type": "address"
        },
        {
          "indexed": true,
          "internalType": "address",
          "name": "to",
          "type": "address"
        },
        {
          "indexed": true,
          "internalType": "uint256",
          "name": "tokenId",
          "type": "uint256"
        }
      ],
      "name": "Transfer",
      "type": "event"
    },
    {
      "anonymous": false,
      "inputs": [
        {
          "indexed": false,
          "internalType": "uint256",
          "name": "tokenId",
          "type": "uint256"
        },
        {
          "indexed": false,
          "internalType": "address",
          "name": "withnessAddr",
          "type": "address"
        }
      ],
      "name": "Witness",
      "type": "event"
    },
    {
      "inputs": [
        {
          "internalType": "address",
          "name": "to",
          "type": "address"
        },
        {
          "internalType": "uint256",
          "name": "tokenId",
          "type": "uint256"
        }
      ],
      "name": "approve",
      "outputs": [],
      "stateMutability": "nonpayable",
      "type": "function"
    },
    {
      "inputs": [
        {
          "internalType": "bytes32",
          "name": "_proposeHash",
          "type": "bytes32"
        }
      ],
      "name": "approvePropose",
      "outputs": [],
      "stateMutability": "nonpayable",
      "type": "function"
    },
    {
      "inputs": [
        {
          "internalType": "address",
          "name": "owner",
          "type": "address"
        }
      ],
      "name": "balanceOf",
      "outputs": [
        {
          "internalType": "uint256",
          "name": "",
          "type": "uint256"
        }
      ],
      "stateMutability": "view",
      "type": "function"
    },
    {
      "inputs": [
        {
          "internalType": "uint256",
          "name": "tokenId",
          "type": "uint256"
        }
      ],
      "name": "burn",
      "outputs": [],
      "stateMutability": "nonpayable",
      "type": "function"
    },
    {
      "inputs": [],
      "name": "fee",
      "outputs": [
        {
          "internalType": "uint256",
          "name": "",
          "type": "uint256"
        }
      ],
      "stateMutability": "view",
      "type": "function"
    },
    {
      "inputs": [
        {
          "internalType": "uint256",
          "name": "tokenId",
          "type": "uint256"
        }
      ],
      "name": "getApproved",
      "outputs": [
        {
          "internalType": "address",
          "name": "",
          "type": "address"
        }
      ],
      "stateMutability": "view",
      "type": "function"
    },
    {
      "inputs": [
        {
          "internalType": "address",
          "name": "_addr",
          "type": "address"
        }
      ],
      "name": "getproposeIdByAddr",
      "outputs": [
        {
          "internalType": "bytes32[]",
          "name": "",
          "type": "bytes32[]"
        }
      ],
      "stateMutability": "view",
      "type": "function"
    },
    {
      "inputs": [
        {
          "internalType": "address",
          "name": "owner",
          "type": "address"
        },
        {
          "internalType": "address",
          "name": "operator",
          "type": "address"
        }
      ],
      "name": "isApprovedForAll",
      "outputs": [
        {
          "internalType": "bool",
          "name": "",
          "type": "bool"
        }
      ],
      "stateMutability": "view",
      "type": "function"
    },
    {
      "inputs": [],
      "name": "name",
      "outputs": [
        {
          "internalType": "string",
          "name": "",
          "type": "string"
        }
      ],
      "stateMutability": "view",
      "type": "function"
    },
    {
      "inputs": [],
      "name": "owner",
      "outputs": [
        {
          "internalType": "address",
          "name": "",
          "type": "address"
        }
      ],
      "stateMutability": "view",
      "type": "function"
    },
    {
      "inputs": [
        {
          "internalType": "uint256",
          "name": "tokenId",
          "type": "uint256"
        }
      ],
      "name": "ownerOf",
      "outputs": [
        {
          "internalType": "address",
          "name": "",
          "type": "address"
        }
      ],
      "stateMutability": "view",
      "type": "function"
    },
    {
      "inputs": [
        {
          "internalType": "address",
          "name": "",
          "type": "address"
        },
        {
          "internalType": "uint256",
          "name": "",
          "type": "uint256"
        }
      ],
      "name": "pendingConfirm",
      "outputs": [
        {
          "internalType": "bytes32",
          "name": "",
          "type": "bytes32"
        }
      ],
      "stateMutability": "view",
      "type": "function"
    },
    {
      "inputs": [
        {
          "internalType": "address",
          "name": "_party",
          "type": "address"
        },
        {
          "internalType": "uint256",
          "name": "index",
          "type": "uint256"
        }
      ],
      "name": "pendingConfirmByIndex",
      "outputs": [
        {
          "internalType": "bytes32",
          "name": "",
          "type": "bytes32"
        }
      ],
      "stateMutability": "view",
      "type": "function"
    },
    {
      "inputs": [
        {
          "internalType": "address",
          "name": "",
          "type": "address"
        }
      ],
      "name": "pendingConfirmCount",
      "outputs": [
        {
          "internalType": "uint256",
          "name": "",
          "type": "uint256"
        }
      ],
      "stateMutability": "view",
      "type": "function"
    },
    {
      "inputs": [
        {
          "internalType": "address",
          "name": "",
          "type": "address"
        },
        {
          "internalType": "bytes32",
          "name": "",
          "type": "bytes32"
        }
      ],
      "name": "pendingConfirmHashIndex",
      "outputs": [
        {
          "internalType": "uint256",
          "name": "",
          "type": "uint256"
        }
      ],
      "stateMutability": "view",
      "type": "function"
    },
    {
      "inputs": [
        {
          "internalType": "address",
          "name": "_party",
          "type": "address"
        },
        {
          "internalType": "bytes32",
          "name": "_hashId",
          "type": "bytes32"
        }
      ],
      "name": "pendingConfirmIndexByHash",
      "outputs": [
        {
          "internalType": "uint256",
          "name": "",
          "type": "uint256"
        }
      ],
      "stateMutability": "view",
      "type": "function"
    },
    {
      "inputs": [
        {
          "internalType": "address",
          "name": "_from",
          "type": "address"
        },
        {
          "internalType": "address",
          "name": "_to",
          "type": "address"
        },
        {
          "internalType": "uint256",
          "name": "_eventId",
          "type": "uint256"
        }
      ],
      "name": "proposeExists",
      "outputs": [
        {
          "internalType": "bool",
          "name": "",
          "type": "bool"
        }
      ],
      "stateMutability": "view",
      "type": "function"
    },
    {
      "inputs": [
        {
          "internalType": "bytes32",
          "name": "_proposeHash",
          "type": "bytes32"
        }
      ],
      "name": "proposeHashExists",
      "outputs": [
        {
          "internalType": "bool",
          "name": "",
          "type": "bool"
        }
      ],
      "stateMutability": "view",
      "type": "function"
    },
    {
      "inputs": [
        {
          "internalType": "address",
          "name": "",
          "type": "address"
        },
        {
          "internalType": "uint256",
          "name": "",
          "type": "uint256"
        }
      ],
      "name": "proposeIdByAddr",
      "outputs": [
        {
          "internalType": "bytes32",
          "name": "",
          "type": "bytes32"
        }
      ],
      "stateMutability": "view",
      "type": "function"
    },
    {
      "inputs": [
        {
          "internalType": "bytes32",
          "name": "",
          "type": "bytes32"
        }
      ],
      "name": "proposeInfo",
      "outputs": [
        {
          "internalType": "address",
          "name": "from",
          "type": "address"
        },
        {
          "internalType": "address",
          "name": "to",
          "type": "address"
        },
        {
          "internalType": "uint256",
          "name": "eventId",
          "type": "uint256"
        },
        {
          "internalType": "string",
          "name": "tokenURI",
          "type": "string"
        },
        {
          "internalType": "bool",
          "name": "acceptStatus",
          "type": "bool"
        },
        {
          "internalType": "bool",
          "name": "mutualMint",
          "type": "bool"
        },
        {
          "internalType": "uint256",
          "name": "createAt",
          "type": "uint256"
        },
        {
          "internalType": "uint256",
          "name": "confirmAt",
          "type": "uint256"
        }
      ],
      "stateMutability": "view",
      "type": "function"
    },
    {
      "inputs": [],
      "name": "renounceOwnership",
      "outputs": [],
      "stateMutability": "nonpayable",
      "type": "function"
    },
    {
      "inputs": [
        {
          "internalType": "address",
          "name": "from",
          "type": "address"
        },
        {
          "internalType": "address",
          "name": "to",
          "type": "address"
        },
        {
          "internalType": "uint256",
          "name": "tokenId",
          "type": "uint256"
        }
      ],
      "name": "safeTransferFrom",
      "outputs": [],
      "stateMutability": "nonpayable",
      "type": "function"
    },
    {
      "inputs": [
        {
          "internalType": "address",
          "name": "from",
          "type": "address"
        },
        {
          "internalType": "address",
          "name": "to",
          "type": "address"
        },
        {
          "internalType": "uint256",
          "name": "tokenId",
          "type": "uint256"
        },
        {
          "internalType": "bytes",
          "name": "_data",
          "type": "bytes"
        }
      ],
      "name": "safeTransferFrom",
      "outputs": [],
      "stateMutability": "nonpayable",
      "type": "function"
    },
    {
      "inputs": [
        {
          "internalType": "address[]",
          "name": "_parties",
          "type": "address[]"
        },
        {
          "internalType": "uint256",
          "name": "_eventId",
          "type": "uint256"
        },
        {
          "internalType": "bool",
          "name": "_mutualMint",
          "type": "bool"
        },
        {
          "internalType": "string",
          "name": "_tokenURI",
          "type": "string"
        }
      ],
      "name": "sendBatchRequest",
      "outputs": [],
      "stateMutability": "payable",
      "type": "function"
    },
    {
      "inputs": [
        {
          "internalType": "address",
          "name": "_party",
          "type": "address"
        },
        {
          "internalType": "uint256",
          "name": "_eventId",
          "type": "uint256"
        },
        {
          "internalType": "bool",
          "name": "_mutualMint",
          "type": "bool"
        },
        {
          "internalType": "string",
          "name": "_tokenURI",
          "type": "string"
        }
      ],
      "name": "sendRequest",
      "outputs": [],
      "stateMutability": "payable",
      "type": "function"
    },
    {
      "inputs": [
        {
          "internalType": "address",
          "name": "operator",
          "type": "address"
        },
        {
          "internalType": "bool",
          "name": "approved",
          "type": "bool"
        }
      ],
      "name": "setApprovalForAll",
      "outputs": [],
      "stateMutability": "nonpayable",
      "type": "function"
    },
    {
      "inputs": [
        {
          "internalType": "bytes4",
          "name": "interfaceId",
          "type": "bytes4"
        }
      ],
      "name": "supportsInterface",
      "outputs": [
        {
          "internalType": "bool",
          "name": "",
          "type": "bool"
        }
      ],
      "stateMutability": "view",
      "type": "function"
    },
    {
      "inputs": [],
      "name": "symbol",
      "outputs": [
        {
          "internalType": "string",
          "name": "",
          "type": "string"
        }
      ],
      "stateMutability": "view",
      "type": "function"
    },
    {
      "inputs": [
        {
          "internalType": "uint256",
          "name": "tokenId",
          "type": "uint256"
        }
      ],
      "name": "tokenURI",
      "outputs": [
        {
          "internalType": "string",
          "name": "",
          "type": "string"
        }
      ],
      "stateMutability": "view",
      "type": "function"
    },
    {
      "inputs": [
        {
          "internalType": "address",
          "name": "from",
          "type": "address"
        },
        {
          "internalType": "address",
          "name": "to",
          "type": "address"
        },
        {
          "internalType": "uint256",
          "name": "tokenId",
          "type": "uint256"
        }
      ],
      "name": "transferFrom",
      "outputs": [],
      "stateMutability": "nonpayable",
      "type": "function"
    },
    {
      "inputs": [
        {
          "internalType": "address",
          "name": "newOwner",
          "type": "address"
        }
      ],
      "name": "transferOwnership",
      "outputs": [],
      "stateMutability": "nonpayable",
      "type": "function"
    },
    {
      "inputs": [],
      "name": "withdraw",
      "outputs": [],
      "stateMutability": "nonpayable",
      "type": "function"
    },
    {
      "inputs": [
        {
          "internalType": "uint256",
          "name": "tokenId",
          "type": "uint256"
        }
      ],
      "name": "witness",
      "outputs": [],
      "stateMutability": "nonpayable",
      "type": "function"
    }
  ],
  "bytecode": "0x60806040523480156200001157600080fd5b5060405162005306380380620053068339818101604052810190620000379190620002a2565b6040518060400160405280600d81526020017f50726f6f66204f6620536f756c000000000000000000000000000000000000008152506040518060400160405280600381526020017f504f5300000000000000000000000000000000000000000000000000000000008152508160009080519060200190620000bb929190620001db565b508060019080519060200190620000d4929190620001db565b505050620000f7620000eb6200010d60201b60201c565b6200011560201b60201c565b600160088190555080600f819055505062000357565b600033905090565b6000600760009054906101000a900473ffffffffffffffffffffffffffffffffffffffff16905081600760006101000a81548173ffffffffffffffffffffffffffffffffffffffff021916908373ffffffffffffffffffffffffffffffffffffffff1602179055508173ffffffffffffffffffffffffffffffffffffffff168173ffffffffffffffffffffffffffffffffffffffff167f8be0079c531659141344cd1fd0a4f28419497f9722a3daafe3b4186f6b6457e060405160405180910390a35050565b828054620001e990620002d8565b90600052602060002090601f0160209004810192826200020d576000855562000259565b82601f106200022857805160ff191683800117855562000259565b8280016001018555821562000259579182015b82811115620002585782518255916020019190600101906200023b565b5b5090506200026891906200026c565b5090565b5b80821115620002875760008160009055506001016200026d565b5090565b6000815190506200029c816200033d565b92915050565b600060208284031215620002b557600080fd5b6000620002c5848285016200028b565b91505092915050565b6000819050919050565b60006002820490506001821680620002f157607f821691505b602082108114156200030857620003076200030e565b5b50919050565b7f4e487b7100000000000000000000000000000000000000000000000000000000600052602260045260246000fd5b6200034881620002ce565b81146200035457600080fd5b50565b614f9f80620003676000396000f3fe6080604052600436106101ee5760003560e01c806370a082311161010d578063a1dead29116100a0578063d1a8daed1161006f578063d1a8daed14610742578063ddca3f431461077f578063e985e9c5146107aa578063f02b3ad0146107e7578063f2fde38b14610824576101ee565b8063a1dead291461066f578063a22cb465146106b3578063b88d4fde146106dc578063c87b56dd14610705576101ee565b806384945433116100dc57806384945433146105d45780638da5cb5b146105f057806395d89b411461061b5780639b9419c414610646576101ee565b806370a082311461053b578063715018a61461057857806379d8912a1461058f57806383608d8c146105ab576101ee565b806323b872dd1161018557806344d288231161015457806344d28823146104475780634ac1d82b146104845780635b6fcedd146104c15780636352211e146104fe576101ee565b806323b872dd146103b55780633ccfd60b146103de57806342842e0e146103f557806342966c681461041e576101ee565b8063095ea7b3116101c1578063095ea7b3146102d55780630ce3fd7b146102fe5780630fe96a521461033b57806319eeb63b14610378576101ee565b806301ffc9a7146101f357806306fdde031461023057806307298bd91461025b578063081812fc14610298575b600080fd5b3480156101ff57600080fd5b5061021a60048036038101906102159190613986565b61084d565b604051610227919061406d565b60405180910390f35b34801561023c57600080fd5b5061024561092f565b60405161025291906140cc565b60405180910390f35b34801561026757600080fd5b50610282600480360381019061027d91906136d1565b6109c1565b60405161028f919061406d565b60405180910390f35b3480156102a457600080fd5b506102bf60048036038101906102ba91906139d8565b610a52565b6040516102cc9190613f5f565b60405180910390f35b3480156102e157600080fd5b506102fc60048036038101906102f79190613813565b610ad7565b005b34801561030a57600080fd5b506103256004803603810190610320919061366c565b610bef565b604051610332919061440e565b60405180910390f35b34801561034757600080fd5b50610362600480360381019061035d919061395d565b610c07565b60405161036f919061406d565b60405180910390f35b34801561038457600080fd5b5061039f600480360381019061039a91906137d7565b610c86565b6040516103ac919061440e565b60405180910390f35b3480156103c157600080fd5b506103dc60048036038101906103d791906136d1565b610ce1565b005b3480156103ea57600080fd5b506103f3610d41565b005b34801561040157600080fd5b5061041c600480360381019061041791906136d1565b610e06565b005b34801561042a57600080fd5b50610445600480360381019061044091906139d8565b610e26565b005b34801561045357600080fd5b5061046e60048036038101906104699190613813565b610e82565b60405161047b9190614088565b60405180910390f35b34801561049057600080fd5b506104ab60048036038101906104a691906137d7565b610ea7565b6040516104b8919061440e565b60405180910390f35b3480156104cd57600080fd5b506104e860048036038101906104e39190613813565b610ecc565b6040516104f59190614088565b60405180910390f35b34801561050a57600080fd5b50610525600480360381019061052091906139d8565b610f27565b6040516105329190613f5f565b60405180910390f35b34801561054757600080fd5b50610562600480360381019061055d919061366c565b610fd9565b60405161056f919061440e565b60405180910390f35b34801561058457600080fd5b5061058d611091565b005b6105a960048036038101906105a4919061384f565b611119565b005b3480156105b757600080fd5b506105d260048036038101906105cd919061395d565b611210565b005b6105ee60048036038101906105e991906138ca565b6114df565b005b3480156105fc57600080fd5b5061060561163c565b6040516106129190613f5f565b60405180910390f35b34801561062757600080fd5b50610630611666565b60405161063d91906140cc565b60405180910390f35b34801561065257600080fd5b5061066d600480360381019061066891906139d8565b6116f8565b005b34801561067b57600080fd5b506106966004803603810190610691919061395d565b61178a565b6040516106aa989796959493929190613fc6565b60405180910390f35b3480156106bf57600080fd5b506106da60048036038101906106d5919061379b565b6118b4565b005b3480156106e857600080fd5b5061070360048036038101906106fe9190613720565b6118ca565b005b34801561071157600080fd5b5061072c600480360381019061072791906139d8565b61192c565b60405161073991906140cc565b60405180910390f35b34801561074e57600080fd5b506107696004803603810190610764919061366c565b611a7e565b604051610776919061404b565b60405180910390f35b34801561078b57600080fd5b50610794611b15565b6040516107a1919061440e565b60405180910390f35b3480156107b657600080fd5b506107d160048036038101906107cc9190613695565b611b1b565b6040516107de919061406d565b60405180910390f35b3480156107f357600080fd5b5061080e60048036038101906108099190613813565b611baf565b60405161081b9190614088565b60405180910390f35b34801561083057600080fd5b5061084b6004803603810190610846919061366c565b611be0565b005b60007f80ac58cd000000000000000000000000000000000000000000000000000000007bffffffffffffffffffffffffffffffffffffffffffffffffffffffff1916827bffffffffffffffffffffffffffffffffffffffffffffffffffffffff1916148061091857507f5b5e139f000000000000000000000000000000000000000000000000000000007bffffffffffffffffffffffffffffffffffffffffffffffffffffffff1916827bffffffffffffffffffffffffffffffffffffffffffffffffffffffff1916145b80610928575061092782611cd8565b5b9050919050565b60606000805461093e906146fc565b80601f016020809104026020016040519081016040528092919081815260200182805461096a906146fc565b80156109b75780601f1061098c576101008083540402835291602001916109b7565b820191906000526020600020905b81548152906001019060200180831161099a57829003601f168201915b5050505050905090565b6000806109cf858585611d42565b90508473ffffffffffffffffffffffffffffffffffffffff16600a600083815260200190815260200160002060000160009054906101000a900473ffffffffffffffffffffffffffffffffffffffff1673ffffffffffffffffffffffffffffffffffffffff161415610a45576001915050610a4b565b60009150505b9392505050565b6000610a5d82611d78565b610a9c576040517f08c379a0000000000000000000000000000000000000000000000000000000008152600401610a93906142ee565b60405180910390fd5b6004600083815260200190815260200160002060009054906101000a900473ffffffffffffffffffffffffffffffffffffffff169050919050565b6000610ae282610f27565b90508073ffffffffffffffffffffffffffffffffffffffff168373ffffffffffffffffffffffffffffffffffffffff161415610b53576040517f08c379a0000000000000000000000000000000000000000000000000000000008152600401610b4a9061438e565b60405180910390fd5b8073ffffffffffffffffffffffffffffffffffffffff16610b72611de4565b73ffffffffffffffffffffffffffffffffffffffff161480610ba15750610ba081610b9b611de4565b611b1b565b5b610be0576040517f08c379a0000000000000000000000000000000000000000000000000000000008152600401610bd79061422e565b60405180910390fd5b610bea8383611dec565b505050565b600d6020528060005260406000206000915090505481565b60008073ffffffffffffffffffffffffffffffffffffffff16600a600084815260200190815260200160002060000160009054906101000a900473ffffffffffffffffffffffffffffffffffffffff1673ffffffffffffffffffffffffffffffffffffffff161415610c7c5760009050610c81565b600190505b919050565b6000600e60008473ffffffffffffffffffffffffffffffffffffffff1673ffffffffffffffffffffffffffffffffffffffff168152602001908152602001600020600083815260200190815260200160002054905092915050565b610cf2610cec611de4565b82611ea5565b610d31576040517f08c379a0000000000000000000000000000000000000000000000000000000008152600401610d28906143ae565b60405180910390fd5b610d3c838383611f83565b505050565b610d49611de4565b73ffffffffffffffffffffffffffffffffffffffff16610d6761163c565b73ffffffffffffffffffffffffffffffffffffffff1614610dbd576040517f08c379a0000000000000000000000000000000000000000000000000000000008152600401610db49061430e565b60405180910390fd5b3373ffffffffffffffffffffffffffffffffffffffff166108fc479081150290604051600060405180830381858888f19350505050158015610e03573d6000803e3d6000fd5b50565b610e21838383604051806020016040528060008152506118ca565b505050565b610e37610e31611de4565b82611ea5565b610e76576040517f08c379a0000000000000000000000000000000000000000000000000000000008152600401610e6d9061436e565b60405180910390fd5b610e7f816121df565b50565b600c602052816000526040600020602052806000526040600020600091509150505481565b600e602052816000526040600020602052806000526040600020600091509150505481565b6000600c60008473ffffffffffffffffffffffffffffffffffffffff1673ffffffffffffffffffffffffffffffffffffffff168152602001908152602001600020600083815260200190815260200160002054905092915050565b6000806002600084815260200190815260200160002060009054906101000a900473ffffffffffffffffffffffffffffffffffffffff169050600073ffffffffffffffffffffffffffffffffffffffff168173ffffffffffffffffffffffffffffffffffffffff161415610fd0576040517f08c379a0000000000000000000000000000000000000000000000000000000008152600401610fc79061426e565b60405180910390fd5b80915050919050565b60008073ffffffffffffffffffffffffffffffffffffffff168273ffffffffffffffffffffffffffffffffffffffff16141561104a576040517f08c379a00000000000000000000000000000000000000000000000000000000081526004016110419061424e565b60405180910390fd5b600360008373ffffffffffffffffffffffffffffffffffffffff1673ffffffffffffffffffffffffffffffffffffffff168152602001908152602001600020549050919050565b611099611de4565b73ffffffffffffffffffffffffffffffffffffffff166110b761163c565b73ffffffffffffffffffffffffffffffffffffffff161461110d576040517f08c379a00000000000000000000000000000000000000000000000000000000081526004016111049061430e565b60405180910390fd5b6111176000612232565b565b6002600854141561115f576040517f08c379a0000000000000000000000000000000000000000000000000000000008152600401611156906143ee565b60405180910390fd5b60026008819055506111723385856109c1565b156111b2576040517f08c379a00000000000000000000000000000000000000000000000000000000081526004016111a99061420e565b60405180910390fd5b600f5434146111f6576040517f08c379a00000000000000000000000000000000000000000000000000000000081526004016111ed906141ee565b60405180910390fd5b611202848484846122f8565b600160088190555050505050565b60026008541415611256576040517f08c379a000000000000000000000000000000000000000000000000000000000815260040161124d906143ee565b60405180910390fd5b600260088190555061126781610c07565b6112a6576040517f08c379a000000000000000000000000000000000000000000000000000000000815260040161129d9061414e565b60405180910390fd5b6000600a60008381526020019081526020016000209050600015158160040160009054906101000a900460ff16151514611315576040517f08c379a000000000000000000000000000000000000000000000000000000000815260040161130c906141ae565b60405180910390fd5b60018160040160006101000a81548160ff0219169083151502179055504281600601819055506113453383612570565b8060040160019054906101000a900460ff1615611418576114168160000160009054906101000a900473ffffffffffffffffffffffffffffffffffffffff16826003018054611393906146fc565b80601f01602080910402602001604051908101604052809291908181526020018280546113bf906146fc565b801561140c5780601f106113e15761010080835404028352916020019161140c565b820191906000526020600020905b8154815290600101906020018083116113ef57829003601f168201915b50505050506127cb565b505b6114d28160010160009054906101000a900473ffffffffffffffffffffffffffffffffffffffff1682600301805461144f906146fc565b80601f016020809104026020016040519081016040528092919081815260200182805461147b906146fc565b80156114c85780601f1061149d576101008083540402835291602001916114c8565b820191906000526020600020905b8154815290600101906020018083116114ab57829003601f168201915b50505050506127cb565b5050600160088190555050565b60026008541415611525576040517f08c379a000000000000000000000000000000000000000000000000000000000815260040161151c906143ee565b60405180910390fd5b600260088190555060005b845181101561162d576000858281518110611574577f4e487b7100000000000000000000000000000000000000000000000000000000600052603260045260246000fd5b602002602001015190506115893382876109c1565b156115c9576040517f08c379a00000000000000000000000000000000000000000000000000000000081526004016115c09061420e565b60405180910390fd5b600f54341461160d576040517f08c379a0000000000000000000000000000000000000000000000000000000008152600401611604906141ee565b60405180910390fd5b611619818686866122f8565b5080806116259061475f565b915050611530565b50600160088190555050505050565b6000600760009054906101000a900473ffffffffffffffffffffffffffffffffffffffff16905090565b606060018054611675906146fc565b80601f01602080910402602001604051908101604052809291908181526020018280546116a1906146fc565b80156116ee5780601f106116c3576101008083540402835291602001916116ee565b820191906000526020600020905b8154815290600101906020018083116116d157829003601f168201915b5050505050905090565b6002600854141561173e576040517f08c379a0000000000000000000000000000000000000000000000000000000008152600401611735906143ee565b60405180910390fd5b60026008819055507fae1bcbdf2de9df4313d4932816e3638b4de0908a210e6fba47ea7d529034ca3e8133604051611777929190614429565b60405180910390a1600160088190555050565b600a6020528060005260406000206000915090508060000160009054906101000a900473ffffffffffffffffffffffffffffffffffffffff16908060010160009054906101000a900473ffffffffffffffffffffffffffffffffffffffff16908060020154908060030180546117ff906146fc565b80601f016020809104026020016040519081016040528092919081815260200182805461182b906146fc565b80156118785780601f1061184d57610100808354040283529160200191611878565b820191906000526020600020905b81548152906001019060200180831161185b57829003601f168201915b5050505050908060040160009054906101000a900460ff16908060040160019054906101000a900460ff16908060050154908060060154905088565b6118c66118bf611de4565b8383612803565b5050565b6118db6118d5611de4565b83611ea5565b61191a576040517f08c379a0000000000000000000000000000000000000000000000000000000008152600401611911906143ae565b60405180910390fd5b61192684848484612970565b50505050565b606061193782611d78565b611976576040517f08c379a000000000000000000000000000000000000000000000000000000000815260040161196d906142ce565b60405180910390fd5b6000600660008481526020019081526020016000208054611996906146fc565b80601f01602080910402602001604051908101604052809291908181526020018280546119c2906146fc565b8015611a0f5780601f106119e457610100808354040283529160200191611a0f565b820191906000526020600020905b8154815290600101906020018083116119f257829003601f168201915b505050505090506000611a206129cc565b9050600081511415611a36578192505050611a79565b600082511115611a6b578082604051602001611a53929190613f3b565b60405160208183030381529060405292505050611a79565b611a74846129e3565b925050505b919050565b6060600b60008373ffffffffffffffffffffffffffffffffffffffff1673ffffffffffffffffffffffffffffffffffffffff168152602001908152602001600020805480602002602001604051908101604052809291908181526020018280548015611b0957602002820191906000526020600020905b815481526020019060010190808311611af5575b50505050509050919050565b600f5481565b6000600560008473ffffffffffffffffffffffffffffffffffffffff1673ffffffffffffffffffffffffffffffffffffffff16815260200190815260200160002060008373ffffffffffffffffffffffffffffffffffffffff1673ffffffffffffffffffffffffffffffffffffffff16815260200190815260200160002060009054906101000a900460ff16905092915050565b600b6020528160005260406000208181548110611bcb57600080fd5b90600052602060002001600091509150505481565b611be8611de4565b73ffffffffffffffffffffffffffffffffffffffff16611c0661163c565b73ffffffffffffffffffffffffffffffffffffffff1614611c5c576040517f08c379a0000000000000000000000000000000000000000000000000000000008152600401611c539061430e565b60405180910390fd5b600073ffffffffffffffffffffffffffffffffffffffff168173ffffffffffffffffffffffffffffffffffffffff161415611ccc576040517f08c379a0000000000000000000000000000000000000000000000000000000008152600401611cc39061410e565b60405180910390fd5b611cd581612232565b50565b60007f01ffc9a7000000000000000000000000000000000000000000000000000000007bffffffffffffffffffffffffffffffffffffffffffffffffffffffff1916827bffffffffffffffffffffffffffffffffffffffffffffffffffffffff1916149050919050565b6000838383604051602001611d5993929190613efe565b6040516020818303038152906040528051906020012090509392505050565b60008073ffffffffffffffffffffffffffffffffffffffff166002600084815260200190815260200160002060009054906101000a900473ffffffffffffffffffffffffffffffffffffffff1673ffffffffffffffffffffffffffffffffffffffff1614159050919050565b600033905090565b816004600083815260200190815260200160002060006101000a81548173ffffffffffffffffffffffffffffffffffffffff021916908373ffffffffffffffffffffffffffffffffffffffff160217905550808273ffffffffffffffffffffffffffffffffffffffff16611e5f83610f27565b73ffffffffffffffffffffffffffffffffffffffff167f8c5be1e5ebec7d5bd14f71427d1e84f3dd0314c0f7b2291e5b200ac8c7c3b92560405160405180910390a45050565b6000611eb082611d78565b611eef576040517f08c379a0000000000000000000000000000000000000000000000000000000008152600401611ee6906141ce565b60405180910390fd5b6000611efa83610f27565b90508073ffffffffffffffffffffffffffffffffffffffff168473ffffffffffffffffffffffffffffffffffffffff161480611f6957508373ffffffffffffffffffffffffffffffffffffffff16611f5184610a52565b73ffffffffffffffffffffffffffffffffffffffff16145b80611f7a5750611f798185611b1b565b5b91505092915050565b8273ffffffffffffffffffffffffffffffffffffffff16611fa382610f27565b73ffffffffffffffffffffffffffffffffffffffff1614611ff9576040517f08c379a0000000000000000000000000000000000000000000000000000000008152600401611ff09061432e565b60405180910390fd5b600073ffffffffffffffffffffffffffffffffffffffff168273ffffffffffffffffffffffffffffffffffffffff161415612069576040517f08c379a00000000000000000000000000000000000000000000000000000000081526004016120609061416e565b60405180910390fd5b612074838383612a8a565b61207f600082611dec565b6001600360008573ffffffffffffffffffffffffffffffffffffffff1673ffffffffffffffffffffffffffffffffffffffff16815260200190815260200160002060008282546120cf9190614608565b925050819055506001600360008473ffffffffffffffffffffffffffffffffffffffff1673ffffffffffffffffffffffffffffffffffffffff16815260200190815260200160002060008282546121269190614581565b92505081905550816002600083815260200190815260200160002060006101000a81548173ffffffffffffffffffffffffffffffffffffffff021916908373ffffffffffffffffffffffffffffffffffffffff160217905550808273ffffffffffffffffffffffffffffffffffffffff168473ffffffffffffffffffffffffffffffffffffffff167fddf252ad1be2c89b69c2b068fc378daa952ba7f163c4a11628f55a4df523b3ef60405160405180910390a4505050565b6121e881612b4f565b6000600660008381526020019081526020016000208054612208906146fc565b90501461222f5760066000828152602001908152602001600020600061222e91906133a5565b5b50565b6000600760009054906101000a900473ffffffffffffffffffffffffffffffffffffffff16905081600760006101000a81548173ffffffffffffffffffffffffffffffffffffffff021916908373ffffffffffffffffffffffffffffffffffffffff1602179055508173ffffffffffffffffffffffffffffffffffffffff168173ffffffffffffffffffffffffffffffffffffffff167f8be0079c531659141344cd1fd0a4f28419497f9722a3daafe3b4186f6b6457e060405160405180910390a35050565b6000612305338686611d42565b90506040518061010001604052803373ffffffffffffffffffffffffffffffffffffffff1681526020018673ffffffffffffffffffffffffffffffffffffffff16815260200143815260200183815260200160001515815260200184151581526020014281526020016000815250600a600083815260200190815260200160002060008201518160000160006101000a81548173ffffffffffffffffffffffffffffffffffffffff021916908373ffffffffffffffffffffffffffffffffffffffff16021790555060208201518160010160006101000a81548173ffffffffffffffffffffffffffffffffffffffff021916908373ffffffffffffffffffffffffffffffffffffffff16021790555060408201518160020155606082015181600301908051906020019061243a9291906133e5565b5060808201518160040160006101000a81548160ff02191690831515021790555060a08201518160040160016101000a81548160ff02191690831515021790555060c0820151816005015560e08201518160060155905050600b60003373ffffffffffffffffffffffffffffffffffffffff1673ffffffffffffffffffffffffffffffffffffffff1681526020019081526020016000208190806001815401808255809150506001900390600052602060002001600090919091909150556125028582612c60565b8473ffffffffffffffffffffffffffffffffffffffff163373ffffffffffffffffffffffffffffffffffffffff167fc07e9c053c6fe0cb662c7a0ff5a607e0fac86213d7d37d11d47824986248519283876040516125619291906140a3565b60405180910390a35050505050565b60006001600d60008573ffffffffffffffffffffffffffffffffffffffff1673ffffffffffffffffffffffffffffffffffffffff168152602001908152602001600020546125be9190614608565b90506000600e60008573ffffffffffffffffffffffffffffffffffffffff1673ffffffffffffffffffffffffffffffffffffffff168152602001908152602001600020600084815260200190815260200160002054905081811461271d576000600c60008673ffffffffffffffffffffffffffffffffffffffff1673ffffffffffffffffffffffffffffffffffffffff168152602001908152602001600020600084815260200190815260200160002054905080600c60008773ffffffffffffffffffffffffffffffffffffffff1673ffffffffffffffffffffffffffffffffffffffff16815260200190815260200160002060008481526020019081526020016000208190555081600e60008773ffffffffffffffffffffffffffffffffffffffff1673ffffffffffffffffffffffffffffffffffffffff168152602001908152602001600020600083815260200190815260200160002081905550505b600e60008573ffffffffffffffffffffffffffffffffffffffff1673ffffffffffffffffffffffffffffffffffffffff168152602001908152602001600020600084815260200190815260200160002060009055600c60008573ffffffffffffffffffffffffffffffffffffffff1673ffffffffffffffffffffffffffffffffffffffff16815260200190815260200160002060008381526020019081526020016000206000905550505050565b60006127d76009612de3565b60006127e36009612df9565b90506127ef8482612e07565b6127f98184612fd5565b8091505092915050565b8173ffffffffffffffffffffffffffffffffffffffff168373ffffffffffffffffffffffffffffffffffffffff161415612872576040517f08c379a00000000000000000000000000000000000000000000000000000000081526004016128699061418e565b60405180910390fd5b80600560008573ffffffffffffffffffffffffffffffffffffffff1673ffffffffffffffffffffffffffffffffffffffff16815260200190815260200160002060008473ffffffffffffffffffffffffffffffffffffffff1673ffffffffffffffffffffffffffffffffffffffff16815260200190815260200160002060006101000a81548160ff0219169083151502179055508173ffffffffffffffffffffffffffffffffffffffff168373ffffffffffffffffffffffffffffffffffffffff167f17307eab39ab6107e8899845ad3d59bd9653f200f220920489ca2b5937696c3183604051612963919061406d565b60405180910390a3505050565b61297b848484611f83565b61298784848484613049565b6129c6576040517f08c379a00000000000000000000000000000000000000000000000000000000081526004016129bd906140ee565b60405180910390fd5b50505050565b606060405180602001604052806000815250905090565b60606129ee82611d78565b612a2d576040517f08c379a0000000000000000000000000000000000000000000000000000000008152600401612a249061434e565b60405180910390fd5b6000612a376129cc565b90506000815111612a575760405180602001604052806000815250612a82565b80612a61846131e0565b604051602001612a72929190613f3b565b6040516020818303038152906040525b915050919050565b600073ffffffffffffffffffffffffffffffffffffffff168273ffffffffffffffffffffffffffffffffffffffff161415612acf57612aca83838361338d565b612b4a565b600073ffffffffffffffffffffffffffffffffffffffff168373ffffffffffffffffffffffffffffffffffffffff1614612b3e576040517f08c379a0000000000000000000000000000000000000000000000000000000008152600401612b35906143ce565b60405180910390fd5b612b4983838361338d565b5b505050565b6000612b5a82610f27565b9050612b6881600084612a8a565b612b73600083611dec565b6001600360008373ffffffffffffffffffffffffffffffffffffffff1673ffffffffffffffffffffffffffffffffffffffff1681526020019081526020016000206000828254612bc39190614608565b925050819055506002600083815260200190815260200160002060006101000a81549073ffffffffffffffffffffffffffffffffffffffff021916905581600073ffffffffffffffffffffffffffffffffffffffff168273ffffffffffffffffffffffffffffffffffffffff167fddf252ad1be2c89b69c2b068fc378daa952ba7f163c4a11628f55a4df523b3ef60405160405180910390a45050565b80600c60008473ffffffffffffffffffffffffffffffffffffffff1673ffffffffffffffffffffffffffffffffffffffff1681526020019081526020016000206000600d60008673ffffffffffffffffffffffffffffffffffffffff1673ffffffffffffffffffffffffffffffffffffffff16815260200190815260200160002054815260200190815260200160002081905550600d60008373ffffffffffffffffffffffffffffffffffffffff1673ffffffffffffffffffffffffffffffffffffffff16815260200190815260200160002054600e60008473ffffffffffffffffffffffffffffffffffffffff1673ffffffffffffffffffffffffffffffffffffffff1681526020019081526020016000206000838152602001908152602001600020819055506001600d60008473ffffffffffffffffffffffffffffffffffffffff1673ffffffffffffffffffffffffffffffffffffffff1681526020019081526020016000206000828254612dd89190614581565b925050819055505050565b6001816000016000828254019250508190555050565b600081600001549050919050565b600073ffffffffffffffffffffffffffffffffffffffff168273ffffffffffffffffffffffffffffffffffffffff161415612e77576040517f08c379a0000000000000000000000000000000000000000000000000000000008152600401612e6e906142ae565b60405180910390fd5b612e8081611d78565b15612ec0576040517f08c379a0000000000000000000000000000000000000000000000000000000008152600401612eb79061412e565b60405180910390fd5b612ecc60008383612a8a565b6001600360008473ffffffffffffffffffffffffffffffffffffffff1673ffffffffffffffffffffffffffffffffffffffff1681526020019081526020016000206000828254612f1c9190614581565b92505081905550816002600083815260200190815260200160002060006101000a81548173ffffffffffffffffffffffffffffffffffffffff021916908373ffffffffffffffffffffffffffffffffffffffff160217905550808273ffffffffffffffffffffffffffffffffffffffff16600073ffffffffffffffffffffffffffffffffffffffff167fddf252ad1be2c89b69c2b068fc378daa952ba7f163c4a11628f55a4df523b3ef60405160405180910390a45050565b612fde82611d78565b61301d576040517f08c379a00000000000000000000000000000000000000000000000000000000081526004016130149061428e565b60405180910390fd5b806006600084815260200190815260200160002090805190602001906130449291906133e5565b505050565b600061306a8473ffffffffffffffffffffffffffffffffffffffff16613392565b156131d3578373ffffffffffffffffffffffffffffffffffffffff1663150b7a02613093611de4565b8786866040518563ffffffff1660e01b81526004016130b59493929190613f7a565b602060405180830381600087803b1580156130cf57600080fd5b505af192505050801561310057506040513d601f19601f820116820180604052508101906130fd91906139af565b60015b613183573d8060008114613130576040519150601f19603f3d011682016040523d82523d6000602084013e613135565b606091505b5060008151141561317b576040517f08c379a0000000000000000000000000000000000000000000000000000000008152600401613172906140ee565b60405180910390fd5b805181602001fd5b63150b7a0260e01b7bffffffffffffffffffffffffffffffffffffffffffffffffffffffff1916817bffffffffffffffffffffffffffffffffffffffffffffffffffffffff1916149150506131d8565b600190505b949350505050565b60606000821415613228576040518060400160405280600181526020017f30000000000000000000000000000000000000000000000000000000000000008152509050613388565b600082905060005b6000821461325a5780806132439061475f565b915050600a8261325391906145d7565b9150613230565b60008167ffffffffffffffff81111561329c577f4e487b7100000000000000000000000000000000000000000000000000000000600052604160045260246000fd5b6040519080825280601f01601f1916602001820160405280156132ce5781602001600182028036833780820191505090505b5090505b60008514613381576001826132e79190614608565b9150600a856132f691906147d6565b60306133029190614581565b60f81b81838151811061333e577f4e487b7100000000000000000000000000000000000000000000000000000000600052603260045260246000fd5b60200101907effffffffffffffffffffffffffffffffffffffffffffffffffffffffffffff1916908160001a905350600a8561337a91906145d7565b94506132d2565b8093505050505b919050565b505050565b600080823b905060008111915050919050565b5080546133b1906146fc565b6000825580601f106133c357506133e2565b601f0160209004906000526020600020908101906133e1919061346b565b5b50565b8280546133f1906146fc565b90600052602060002090601f016020900481019282613413576000855561345a565b82601f1061342c57805160ff191683800117855561345a565b8280016001018555821561345a579182015b8281111561345957825182559160200191906001019061343e565b5b509050613467919061346b565b5090565b5b8082111561348457600081600090555060010161346c565b5090565b600061349b61349684614477565b614452565b905080838252602082019050828560208602820111156134ba57600080fd5b60005b858110156134ea57816134d08882613570565b8452602084019350602083019250506001810190506134bd565b5050509392505050565b6000613507613502846144a3565b614452565b90508281526020810184848401111561351f57600080fd5b61352a8482856146ba565b509392505050565b6000613545613540846144d4565b614452565b90508281526020810184848401111561355d57600080fd5b6135688482856146ba565b509392505050565b60008135905061357f81614ef6565b92915050565b600082601f83011261359657600080fd5b81356135a6848260208601613488565b91505092915050565b6000813590506135be81614f0d565b92915050565b6000813590506135d381614f24565b92915050565b6000813590506135e881614f3b565b92915050565b6000815190506135fd81614f3b565b92915050565b600082601f83011261361457600080fd5b81356136248482602086016134f4565b91505092915050565b600082601f83011261363e57600080fd5b813561364e848260208601613532565b91505092915050565b60008135905061366681614f52565b92915050565b60006020828403121561367e57600080fd5b600061368c84828501613570565b91505092915050565b600080604083850312156136a857600080fd5b60006136b685828601613570565b92505060206136c785828601613570565b9150509250929050565b6000806000606084860312156136e657600080fd5b60006136f486828701613570565b935050602061370586828701613570565b925050604061371686828701613657565b9150509250925092565b6000806000806080858703121561373657600080fd5b600061374487828801613570565b945050602061375587828801613570565b935050604061376687828801613657565b925050606085013567ffffffffffffffff81111561378357600080fd5b61378f87828801613603565b91505092959194509250565b600080604083850312156137ae57600080fd5b60006137bc85828601613570565b92505060206137cd858286016135af565b9150509250929050565b600080604083850312156137ea57600080fd5b60006137f885828601613570565b9250506020613809858286016135c4565b9150509250929050565b6000806040838503121561382657600080fd5b600061383485828601613570565b925050602061384585828601613657565b9150509250929050565b6000806000806080858703121561386557600080fd5b600061387387828801613570565b945050602061388487828801613657565b9350506040613895878288016135af565b925050606085013567ffffffffffffffff8111156138b257600080fd5b6138be8782880161362d565b91505092959194509250565b600080600080608085870312156138e057600080fd5b600085013567ffffffffffffffff8111156138fa57600080fd5b61390687828801613585565b945050602061391787828801613657565b9350506040613928878288016135af565b925050606085013567ffffffffffffffff81111561394557600080fd5b6139518782880161362d565b91505092959194509250565b60006020828403121561396f57600080fd5b600061397d848285016135c4565b91505092915050565b60006020828403121561399857600080fd5b60006139a6848285016135d9565b91505092915050565b6000602082840312156139c157600080fd5b60006139cf848285016135ee565b91505092915050565b6000602082840312156139ea57600080fd5b60006139f884828501613657565b91505092915050565b6000613a0d8383613aac565b60208301905092915050565b613a228161463c565b82525050565b613a39613a348261463c565b6147a8565b82525050565b6000613a4a82614515565b613a548185614543565b9350613a5f83614505565b8060005b83811015613a90578151613a778882613a01565b9750613a8283614536565b925050600181019050613a63565b5085935050505092915050565b613aa68161464e565b82525050565b613ab58161465a565b82525050565b613ac48161465a565b82525050565b6000613ad582614520565b613adf8185614554565b9350613aef8185602086016146c9565b613af8816148c3565b840191505092915050565b6000613b0e8261452b565b613b188185614565565b9350613b288185602086016146c9565b613b31816148c3565b840191505092915050565b6000613b478261452b565b613b518185614576565b9350613b618185602086016146c9565b80840191505092915050565b6000613b7a603283614565565b9150613b85826148e1565b604082019050919050565b6000613b9d602683614565565b9150613ba882614930565b604082019050919050565b6000613bc0601c83614565565b9150613bcb8261497f565b602082019050919050565b6000613be3601383614565565b9150613bee826149a8565b602082019050919050565b6000613c06602483614565565b9150613c11826149d1565b604082019050919050565b6000613c29601983614565565b9150613c3482614a20565b602082019050919050565b6000613c4c601683614565565b9150613c5782614a49565b602082019050919050565b6000613c6f602c83614565565b9150613c7a82614a72565b604082019050919050565b6000613c92600f83614565565b9150613c9d82614ac1565b602082019050919050565b6000613cb5601883614565565b9150613cc082614aea565b602082019050919050565b6000613cd8603883614565565b9150613ce382614b13565b604082019050919050565b6000613cfb602a83614565565b9150613d0682614b62565b604082019050919050565b6000613d1e602983614565565b9150613d2982614bb1565b604082019050919050565b6000613d41602e83614565565b9150613d4c82614c00565b604082019050919050565b6000613d64602083614565565b9150613d6f82614c4f565b602082019050919050565b6000613d87603183614565565b9150613d9282614c78565b604082019050919050565b6000613daa602c83614565565b9150613db582614cc7565b604082019050919050565b6000613dcd602083614565565b9150613dd882614d16565b602082019050919050565b6000613df0602983614565565b9150613dfb82614d3f565b604082019050919050565b6000613e13602f83614565565b9150613e1e82614d8e565b604082019050919050565b6000613e36602083614565565b9150613e4182614ddd565b602082019050919050565b6000613e59602183614565565b9150613e6482614e06565b604082019050919050565b6000613e7c603183614565565b9150613e8782614e55565b604082019050919050565b6000613e9f601f83614565565b9150613eaa82614ea4565b602082019050919050565b6000613ec2601f83614565565b9150613ecd82614ecd565b602082019050919050565b613ee1816146b0565b82525050565b613ef8613ef3826146b0565b6147cc565b82525050565b6000613f0a8286613a28565b601482019150613f1a8285613a28565b601482019150613f2a8284613ee7565b602082019150819050949350505050565b6000613f478285613b3c565b9150613f538284613b3c565b91508190509392505050565b6000602082019050613f746000830184613a19565b92915050565b6000608082019050613f8f6000830187613a19565b613f9c6020830186613a19565b613fa96040830185613ed8565b8181036060830152613fbb8184613aca565b905095945050505050565b600061010082019050613fdc600083018b613a19565b613fe9602083018a613a19565b613ff66040830189613ed8565b81810360608301526140088188613b03565b90506140176080830187613a9d565b61402460a0830186613a9d565b61403160c0830185613ed8565b61403e60e0830184613ed8565b9998505050505050505050565b600060208201905081810360008301526140658184613a3f565b905092915050565b60006020820190506140826000830184613a9d565b92915050565b600060208201905061409d6000830184613abb565b92915050565b60006040820190506140b86000830185613abb565b6140c56020830184613ed8565b9392505050565b600060208201905081810360008301526140e68184613b03565b905092915050565b6000602082019050818103600083015261410781613b6d565b9050919050565b6000602082019050818103600083015261412781613b90565b9050919050565b6000602082019050818103600083015261414781613bb3565b9050919050565b6000602082019050818103600083015261416781613bd6565b9050919050565b6000602082019050818103600083015261418781613bf9565b9050919050565b600060208201905081810360008301526141a781613c1c565b9050919050565b600060208201905081810360008301526141c781613c3f565b9050919050565b600060208201905081810360008301526141e781613c62565b9050919050565b6000602082019050818103600083015261420781613c85565b9050919050565b6000602082019050818103600083015261422781613ca8565b9050919050565b6000602082019050818103600083015261424781613ccb565b9050919050565b6000602082019050818103600083015261426781613cee565b9050919050565b6000602082019050818103600083015261428781613d11565b9050919050565b600060208201905081810360008301526142a781613d34565b9050919050565b600060208201905081810360008301526142c781613d57565b9050919050565b600060208201905081810360008301526142e781613d7a565b9050919050565b6000602082019050818103600083015261430781613d9d565b9050919050565b6000602082019050818103600083015261432781613dc0565b9050919050565b6000602082019050818103600083015261434781613de3565b9050919050565b6000602082019050818103600083015261436781613e06565b9050919050565b6000602082019050818103600083015261438781613e29565b9050919050565b600060208201905081810360008301526143a781613e4c565b9050919050565b600060208201905081810360008301526143c781613e6f565b9050919050565b600060208201905081810360008301526143e781613e92565b9050919050565b6000602082019050818103600083015261440781613eb5565b9050919050565b60006020820190506144236000830184613ed8565b92915050565b600060408201905061443e6000830185613ed8565b61444b6020830184613a19565b9392505050565b600061445c61446d565b9050614468828261472e565b919050565b6000604051905090565b600067ffffffffffffffff82111561449257614491614894565b5b602082029050602081019050919050565b600067ffffffffffffffff8211156144be576144bd614894565b5b6144c7826148c3565b9050602081019050919050565b600067ffffffffffffffff8211156144ef576144ee614894565b5b6144f8826148c3565b9050602081019050919050565b6000819050602082019050919050565b600081519050919050565b600081519050919050565b600081519050919050565b6000602082019050919050565b600082825260208201905092915050565b600082825260208201905092915050565b600082825260208201905092915050565b600081905092915050565b600061458c826146b0565b9150614597836146b0565b9250827fffffffffffffffffffffffffffffffffffffffffffffffffffffffffffffffff038211156145cc576145cb614807565b5b828201905092915050565b60006145e2826146b0565b91506145ed836146b0565b9250826145fd576145fc614836565b5b828204905092915050565b6000614613826146b0565b915061461e836146b0565b92508282101561463157614630614807565b5b828203905092915050565b600061464782614690565b9050919050565b60008115159050919050565b6000819050919050565b60007fffffffff0000000000000000000000000000000000000000000000000000000082169050919050565b600073ffffffffffffffffffffffffffffffffffffffff82169050919050565b6000819050919050565b82818337600083830152505050565b60005b838110156146e75780820151818401526020810190506146cc565b838111156146f6576000848401525b50505050565b6000600282049050600182168061471457607f821691505b6020821081141561472857614727614865565b5b50919050565b614737826148c3565b810181811067ffffffffffffffff8211171561475657614755614894565b5b80604052505050565b600061476a826146b0565b91507fffffffffffffffffffffffffffffffffffffffffffffffffffffffffffffffff82141561479d5761479c614807565b5b600182019050919050565b60006147b3826147ba565b9050919050565b60006147c5826148d4565b9050919050565b6000819050919050565b60006147e1826146b0565b91506147ec836146b0565b9250826147fc576147fb614836565b5b828206905092915050565b7f4e487b7100000000000000000000000000000000000000000000000000000000600052601160045260246000fd5b7f4e487b7100000000000000000000000000000000000000000000000000000000600052601260045260246000fd5b7f4e487b7100000000000000000000000000000000000000000000000000000000600052602260045260246000fd5b7f4e487b7100000000000000000000000000000000000000000000000000000000600052604160045260246000fd5b6000601f19601f8301169050919050565b60008160601b9050919050565b7f4552433732313a207472616e7366657220746f206e6f6e20455243373231526560008201527f63656976657220696d706c656d656e7465720000000000000000000000000000602082015250565b7f4f776e61626c653a206e6577206f776e657220697320746865207a65726f206160008201527f6464726573730000000000000000000000000000000000000000000000000000602082015250565b7f4552433732313a20746f6b656e20616c7265616479206d696e74656400000000600082015250565b7f70726f706f7365206e6f74206578697374732e00000000000000000000000000600082015250565b7f4552433732313a207472616e7366657220746f20746865207a65726f2061646460008201527f7265737300000000000000000000000000000000000000000000000000000000602082015250565b7f4552433732313a20617070726f766520746f2063616c6c657200000000000000600082015250565b7f416c7265616479206163636570742070726f706f736500000000000000000000600082015250565b7f4552433732313a206f70657261746f7220717565727920666f72206e6f6e657860008201527f697374656e7420746f6b656e0000000000000000000000000000000000000000602082015250565b7f506c6561736520706179206665652e0000000000000000000000000000000000600082015250565b7f416e206f6666657220616c7265616479206578697374732e0000000000000000600082015250565b7f4552433732313a20617070726f76652063616c6c6572206973206e6f74206f7760008201527f6e6572206e6f7220617070726f76656420666f7220616c6c0000000000000000602082015250565b7f4552433732313a2062616c616e636520717565727920666f7220746865207a6560008201527f726f206164647265737300000000000000000000000000000000000000000000602082015250565b7f4552433732313a206f776e657220717565727920666f72206e6f6e657869737460008201527f656e7420746f6b656e0000000000000000000000000000000000000000000000602082015250565b7f45524337323155524953746f726167653a2055524920736574206f66206e6f6e60008201527f6578697374656e7420746f6b656e000000000000000000000000000000000000602082015250565b7f4552433732313a206d696e7420746f20746865207a65726f2061646472657373600082015250565b7f45524337323155524953746f726167653a2055524920717565727920666f722060008201527f6e6f6e6578697374656e7420746f6b656e000000000000000000000000000000602082015250565b7f4552433732313a20617070726f76656420717565727920666f72206e6f6e657860008201527f697374656e7420746f6b656e0000000000000000000000000000000000000000602082015250565b7f4f776e61626c653a2063616c6c6572206973206e6f7420746865206f776e6572600082015250565b7f4552433732313a207472616e73666572206f6620746f6b656e2074686174206960008201527f73206e6f74206f776e0000000000000000000000000000000000000000000000602082015250565b7f4552433732314d657461646174613a2055524920717565727920666f72206e6f60008201527f6e6578697374656e7420746f6b656e0000000000000000000000000000000000602082015250565b7f63616c6c6572206973206e6f74206f776e6572206e6f7220617070726f766564600082015250565b7f4552433732313a20617070726f76616c20746f2063757272656e74206f776e6560008201527f7200000000000000000000000000000000000000000000000000000000000000602082015250565b7f4552433732313a207472616e736665722063616c6c6572206973206e6f74206f60008201527f776e6572206e6f7220617070726f766564000000000000000000000000000000602082015250565b7f43616e6e6f74207472616e7366657220736f756c20626f6e6420746f6b656e00600082015250565b7f5265656e7472616e637947756172643a207265656e7472616e742063616c6c00600082015250565b614eff8161463c565b8114614f0a57600080fd5b50565b614f168161464e565b8114614f2157600080fd5b50565b614f2d8161465a565b8114614f3857600080fd5b50565b614f4481614664565b8114614f4f57600080fd5b50565b614f5b816146b0565b8114614f6657600080fd5b5056fea264697066735822122005a7998eb9c491b6bae45adc59e20379d34a815991f96a021a6f4d2e6183b23164736f6c63430008040033",
  "linkReferences": {},
  "deployedLinkReferences": {}
}